{"abi":[{"inputs":[{"internalType":"uint256","name":"_minimumContribution","type":"uint256"},{"internalType":"address","name":"_manager","type":"address"}],"stateMutability":"nonpayable","type":"constructor"},{"inputs":[{"internalType":"uint256","name":"index","type":"uint256"}],"name":"approveRequesg","outputs":[],"stateMutability":"nonpayable","type":"function"},{"inputs":[{"internalType":"address","name":"","type":"address"}],"name":"approvers","outputs":[{"internalType":"bool","name":"","type":"bool"}],"stateMutability":"view","type":"function"},{"inputs":[],"name":"approversCount","outputs":[{"internalType":"uint256","name":"","type":"uint256"}],"stateMutability":"view","type":"function"},{"inputs":[],"name":"contribute","outputs":[],"stateMutability":"payable","type":"function"},{"inputs":[{"internalType":"string","name":"description","type":"string"},{"internalType":"uint256","name":"value","type":"uint256"},{"internalType":"address","name":"recipient","type":"address"}],"name":"createRequest","outputs":[],"stateMutability":"nonpayable","type":"function"},{"inputs":[{"internalType":"uint256","name":"index","type":"uint256"}],"name":"finalizeRequest","outputs":[],"stateMutability":"nonpayable","type":"function"},{"inputs":[],"name":"manager","outputs":[{"internalType":"address","name":"","type":"address"}],"stateMutability":"view","type":"function"},{"inputs":[],"name":"minimumContribution","outputs":[{"internalType":"uint256","name":"","type":"uint256"}],"stateMutability":"view","type":"function"},{"inputs":[{"internalType":"uint256","name":"","type":"uint256"}],"name":"requests","outputs":[{"internalType":"string","name":"description","type":"string"},{"internalType":"uint256","name":"value","type":"uint256"},{"internalType":"address","name":"recipient","type":"address"},{"internalType":"bool","name":"complete","type":"bool"},{"internalType":"uint256","name":"approvalCount","type":"uint256"}],"stateMutability":"view","type":"function"}],"devdoc":{"kind":"dev","methods":{},"version":1},"evm":{"assembly":"    /* \"Campaign.sol\":583:2385  contract Campaign {... */\n  mstore(0x40, 0x80)\n    /* \"Campaign.sol\":906:1050  constructor(uint _minimumContribution, address _manager) {... */\n  callvalue\n  dup1\n  iszero\n  tag_1\n  jumpi\n  0x00\n  dup1\n  revert\ntag_1:\n  pop\n  mload(0x40)\n  sub(codesize, bytecodeSize)\n  dup1\n  bytecodeSize\n  dup4\n  codecopy\n  dup2\n  dup2\n  add\n  0x40\n  mstore\n  dup2\n  add\n  swap1\n  tag_2\n  swap2\n  swap1\n  tag_3\n  jump\t// in\ntag_2:\n    /* \"Campaign.sol\":983:991  _manager */\n  dup1\n    /* \"Campaign.sol\":973:980  manager */\n  0x00\n  dup1\n    /* \"Campaign.sol\":973:991  manager = _manager */\n  0x0100\n  exp\n  dup2\n  sload\n  dup2\n  0xffffffffffffffffffffffffffffffffffffffff\n  mul\n  not\n  and\n  swap1\n  dup4\n  0xffffffffffffffffffffffffffffffffffffffff\n  and\n  mul\n  or\n  swap1\n  sstore\n  pop\n    /* \"Campaign.sol\":1023:1043  _minimumContribution */\n  dup2\n    /* \"Campaign.sol\":1001:1020  minimumContribution */\n  0x01\n    /* \"Campaign.sol\":1001:1043  minimumContribution = _minimumContribution */\n  dup2\n  swap1\n  sstore\n  pop\n    /* \"Campaign.sol\":906:1050  constructor(uint _minimumContribution, address _manager) {... */\n  pop\n  pop\n    /* \"Campaign.sol\":583:2385  contract Campaign {... */\n  jump(tag_6)\n    /* \"#utility.yul\":88:205   */\ntag_8:\n    /* \"#utility.yul\":197:198   */\n  0x00\n    /* \"#utility.yul\":194:195   */\n  dup1\n    /* \"#utility.yul\":187:199   */\n  revert\n    /* \"#utility.yul\":334:411   */\ntag_10:\n    /* \"#utility.yul\":371:378   */\n  0x00\n    /* \"#utility.yul\":400:405   */\n  dup2\n    /* \"#utility.yul\":389:405   */\n  swap1\n  pop\n    /* \"#utility.yul\":334:411   */\n  swap2\n  swap1\n  pop\n  jump\t// out\n    /* \"#utility.yul\":417:539   */\ntag_11:\n    /* \"#utility.yul\":490:514   */\n  tag_23\n    /* \"#utility.yul\":508:513   */\n  dup2\n    /* \"#utility.yul\":490:514   */\n  tag_10\n  jump\t// in\ntag_23:\n    /* \"#utility.yul\":483:488   */\n  dup2\n    /* \"#utility.yul\":480:515   */\n  eq\n    /* \"#utility.yul\":470:533   */\n  tag_24\n  jumpi\n    /* \"#utility.yul\":529:530   */\n  0x00\n    /* \"#utility.yul\":526:527   */\n  dup1\n    /* \"#utility.yul\":519:531   */\n  revert\n    /* \"#utility.yul\":470:533   */\ntag_24:\n    /* \"#utility.yul\":417:539   */\n  pop\n  jump\t// out\n    /* \"#utility.yul\":545:688   */\ntag_12:\n    /* \"#utility.yul\":602:607   */\n  0x00\n    /* \"#utility.yul\":633:639   */\n  dup2\n    /* \"#utility.yul\":627:640   */\n  mload\n    /* \"#utility.yul\":618:640   */\n  swap1\n  pop\n    /* \"#utility.yul\":649:682   */\n  tag_26\n    /* \"#utility.yul\":676:681   */\n  dup2\n    /* \"#utility.yul\":649:682   */\n  tag_11\n  jump\t// in\ntag_26:\n    /* \"#utility.yul\":545:688   */\n  swap3\n  swap2\n  pop\n  pop\n  jump\t// out\n    /* \"#utility.yul\":694:820   */\ntag_13:\n    /* \"#utility.yul\":731:738   */\n  0x00\n    /* \"#utility.yul\":771:813   */\n  0xffffffffffffffffffffffffffffffffffffffff\n    /* \"#utility.yul\":764:769   */\n  dup3\n    /* \"#utility.yul\":760:814   */\n  and\n    /* \"#utility.yul\":749:814   */\n  swap1\n  pop\n    /* \"#utility.yul\":694:820   */\n  swap2\n  swap1\n  pop\n  jump\t// out\n    /* \"#utility.yul\":826:922   */\ntag_14:\n    /* \"#utility.yul\":863:870   */\n  0x00\n    /* \"#utility.yul\":892:916   */\n  tag_29\n    /* \"#utility.yul\":910:915   */\n  dup3\n    /* \"#utility.yul\":892:916   */\n  tag_13\n  jump\t// in\ntag_29:\n    /* \"#utility.yul\":881:916   */\n  swap1\n  pop\n    /* \"#utility.yul\":826:922   */\n  swap2\n  swap1\n  pop\n  jump\t// out\n    /* \"#utility.yul\":928:1050   */\ntag_15:\n    /* \"#utility.yul\":1001:1025   */\n  tag_31\n    /* \"#utility.yul\":1019:1024   */\n  dup2\n    /* \"#utility.yul\":1001:1025   */\n  tag_14\n  jump\t// in\ntag_31:\n    /* \"#utility.yul\":994:999   */\n  dup2\n    /* \"#utility.yul\":991:1026   */\n  eq\n    /* \"#utility.yul\":981:1044   */\n  tag_32\n  jumpi\n    /* \"#utility.yul\":1040:1041   */\n  0x00\n    /* \"#utility.yul\":1037:1038   */\n  dup1\n    /* \"#utility.yul\":1030:1042   */\n  revert\n    /* \"#utility.yul\":981:1044   */\ntag_32:\n    /* \"#utility.yul\":928:1050   */\n  pop\n  jump\t// out\n    /* \"#utility.yul\":1056:1199   */\ntag_16:\n    /* \"#utility.yul\":1113:1118   */\n  0x00\n    /* \"#utility.yul\":1144:1150   */\n  dup2\n    /* \"#utility.yul\":1138:1151   */\n  mload\n    /* \"#utility.yul\":1129:1151   */\n  swap1\n  pop\n    /* \"#utility.yul\":1160:1193   */\n  tag_34\n    /* \"#utility.yul\":1187:1192   */\n  dup2\n    /* \"#utility.yul\":1160:1193   */\n  tag_15\n  jump\t// in\ntag_34:\n    /* \"#utility.yul\":1056:1199   */\n  swap3\n  swap2\n  pop\n  pop\n  jump\t// out\n    /* \"#utility.yul\":1205:1712   */\ntag_3:\n    /* \"#utility.yul\":1284:1290   */\n  0x00\n    /* \"#utility.yul\":1292:1298   */\n  dup1\n    /* \"#utility.yul\":1341:1343   */\n  0x40\n    /* \"#utility.yul\":1329:1338   */\n  dup4\n    /* \"#utility.yul\":1320:1327   */\n  dup6\n    /* \"#utility.yul\":1316:1339   */\n  sub\n    /* \"#utility.yul\":1312:1344   */\n  slt\n    /* \"#utility.yul\":1309:1428   */\n  iszero\n  tag_36\n  jumpi\n    /* \"#utility.yul\":1347:1426   */\n  tag_37\n  tag_8\n  jump\t// in\ntag_37:\n    /* \"#utility.yul\":1309:1428   */\ntag_36:\n    /* \"#utility.yul\":1467:1468   */\n  0x00\n    /* \"#utility.yul\":1492:1556   */\n  tag_38\n    /* \"#utility.yul\":1548:1555   */\n  dup6\n    /* \"#utility.yul\":1539:1545   */\n  dup3\n    /* \"#utility.yul\":1528:1537   */\n  dup7\n    /* \"#utility.yul\":1524:1546   */\n  add\n    /* \"#utility.yul\":1492:1556   */\n  tag_12\n  jump\t// in\ntag_38:\n    /* \"#utility.yul\":1482:1556   */\n  swap3\n  pop\n    /* \"#utility.yul\":1438:1566   */\n  pop\n    /* \"#utility.yul\":1605:1607   */\n  0x20\n    /* \"#utility.yul\":1631:1695   */\n  tag_39\n    /* \"#utility.yul\":1687:1694   */\n  dup6\n    /* \"#utility.yul\":1678:1684   */\n  dup3\n    /* \"#utility.yul\":1667:1676   */\n  dup7\n    /* \"#utility.yul\":1663:1685   */\n  add\n    /* \"#utility.yul\":1631:1695   */\n  tag_16\n  jump\t// in\ntag_39:\n    /* \"#utility.yul\":1621:1695   */\n  swap2\n  pop\n    /* \"#utility.yul\":1576:1705   */\n  pop\n    /* \"#utility.yul\":1205:1712   */\n  swap3\n  pop\n  swap3\n  swap1\n  pop\n  jump\t// out\n    /* \"Campaign.sol\":583:2385  contract Campaign {... */\ntag_6:\n  dataSize(sub_0)\n  dup1\n  dataOffset(sub_0)\n  0x00\n  codecopy\n  0x00\n  return\nstop\n\nsub_0: assembly {\n        /* \"Campaign.sol\":583:2385  contract Campaign {... */\n      mstore(0x40, 0x80)\n      jumpi(tag_1, lt(calldatasize, 0x04))\n      shr(0xe0, calldataload(0x00))\n      dup1\n      0x81d12c58\n      gt\n      tag_11\n      jumpi\n      dup1\n      0x81d12c58\n      eq\n      tag_6\n      jumpi\n      dup1\n      0x82fde093\n      eq\n      tag_7\n      jumpi\n      dup1\n      0x8a9cfd55\n      eq\n      tag_8\n      jumpi\n      dup1\n      0x937e09b1\n      eq\n      tag_9\n      jumpi\n      dup1\n      0xd7bb99ba\n      eq\n      tag_10\n      jumpi\n      jump(tag_1)\n    tag_11:\n      dup1\n      0x03441006\n      eq\n      tag_2\n      jumpi\n      dup1\n      0x0a144391\n      eq\n      tag_3\n      jumpi\n      dup1\n      0x138b6ec8\n      eq\n      tag_4\n      jumpi\n      dup1\n      0x481c6a75\n      eq\n      tag_5\n      jumpi\n    tag_1:\n      0x00\n      dup1\n      revert\n        /* \"Campaign.sol\":1997:2383  function finalizeRequest(uint index) public restricted {... */\n    tag_2:\n      callvalue\n      dup1\n      iszero\n      tag_12\n      jumpi\n      0x00\n      dup1\n      revert\n    tag_12:\n      pop\n      tag_13\n      0x04\n      dup1\n      calldatasize\n      sub\n      dup2\n      add\n      swap1\n      tag_14\n      swap2\n      swap1\n      tag_15\n      jump\t// in\n    tag_14:\n      tag_16\n      jump\t// in\n    tag_13:\n      stop\n        /* \"Campaign.sol\":672:713  mapping(address => bool) public approvers */\n    tag_3:\n      callvalue\n      dup1\n      iszero\n      tag_17\n      jumpi\n      0x00\n      dup1\n      revert\n    tag_17:\n      pop\n      tag_18\n      0x04\n      dup1\n      calldatasize\n      sub\n      dup2\n      add\n      swap1\n      tag_19\n      swap2\n      swap1\n      tag_20\n      jump\t// in\n    tag_19:\n      tag_21\n      jump\t// in\n    tag_18:\n      mload(0x40)\n      tag_22\n      swap2\n      swap1\n      tag_23\n      jump\t// in\n    tag_22:\n      mload(0x40)\n      dup1\n      swap2\n      sub\n      swap1\n      return\n        /* \"Campaign.sol\":1649:1991  function approveRequesg(uint index) public {... */\n    tag_4:\n      callvalue\n      dup1\n      iszero\n      tag_24\n      jumpi\n      0x00\n      dup1\n      revert\n    tag_24:\n      pop\n      tag_25\n      0x04\n      dup1\n      calldatasize\n      sub\n      dup2\n      add\n      swap1\n      tag_26\n      swap2\n      swap1\n      tag_15\n      jump\t// in\n    tag_26:\n      tag_27\n      jump\t// in\n    tag_25:\n      stop\n        /* \"Campaign.sol\":607:629  address public manager */\n    tag_5:\n      callvalue\n      dup1\n      iszero\n      tag_28\n      jumpi\n      0x00\n      dup1\n      revert\n    tag_28:\n      pop\n      tag_29\n      tag_30\n      jump\t// in\n    tag_29:\n      mload(0x40)\n      tag_31\n      swap2\n      swap1\n      tag_32\n      jump\t// in\n    tag_31:\n      mload(0x40)\n      dup1\n      swap2\n      sub\n      swap1\n      return\n        /* \"Campaign.sol\":751:776  Request[] public requests */\n    tag_6:\n      callvalue\n      dup1\n      iszero\n      tag_33\n      jumpi\n      0x00\n      dup1\n      revert\n    tag_33:\n      pop\n      tag_34\n      0x04\n      dup1\n      calldatasize\n      sub\n      dup2\n      add\n      swap1\n      tag_35\n      swap2\n      swap1\n      tag_15\n      jump\t// in\n    tag_35:\n      tag_36\n      jump\t// in\n    tag_34:\n      mload(0x40)\n      tag_37\n      swap6\n      swap5\n      swap4\n      swap3\n      swap2\n      swap1\n      tag_38\n      jump\t// in\n    tag_37:\n      mload(0x40)\n      dup1\n      swap2\n      sub\n      swap1\n      return\n        /* \"Campaign.sol\":719:745  uint public approversCount */\n    tag_7:\n      callvalue\n      dup1\n      iszero\n      tag_39\n      jumpi\n      0x00\n      dup1\n      revert\n    tag_39:\n      pop\n      tag_40\n      tag_41\n      jump\t// in\n    tag_40:\n      mload(0x40)\n      tag_42\n      swap2\n      swap1\n      tag_43\n      jump\t// in\n    tag_42:\n      mload(0x40)\n      dup1\n      swap2\n      sub\n      swap1\n      return\n        /* \"Campaign.sol\":1371:1643  function createRequest(string calldata description, uint value, address recipient) public restricted {... */\n    tag_8:\n      callvalue\n      dup1\n      iszero\n      tag_44\n      jumpi\n      0x00\n      dup1\n      revert\n    tag_44:\n      pop\n      tag_45\n      0x04\n      dup1\n      calldatasize\n      sub\n      dup2\n      add\n      swap1\n      tag_46\n      swap2\n      swap1\n      tag_47\n      jump\t// in\n    tag_46:\n      tag_48\n      jump\t// in\n    tag_45:\n      stop\n        /* \"Campaign.sol\":635:666  uint public minimumContribution */\n    tag_9:\n      callvalue\n      dup1\n      iszero\n      tag_49\n      jumpi\n      0x00\n      dup1\n      revert\n    tag_49:\n      pop\n      tag_50\n      tag_51\n      jump\t// in\n    tag_50:\n      mload(0x40)\n      tag_52\n      swap2\n      swap1\n      tag_43\n      jump\t// in\n    tag_52:\n      mload(0x40)\n      dup1\n      swap2\n      sub\n      swap1\n      return\n        /* \"Campaign.sol\":1056:1365  function contribute() public payable {... */\n    tag_10:\n      tag_53\n      tag_54\n      jump\t// in\n    tag_53:\n      stop\n        /* \"Campaign.sol\":1997:2383  function finalizeRequest(uint index) public restricted {... */\n    tag_16:\n        /* \"Campaign.sol\":837:844  manager */\n      0x00\n      dup1\n      sload\n      swap1\n      0x0100\n      exp\n      swap1\n      div\n      0xffffffffffffffffffffffffffffffffffffffff\n      and\n        /* \"Campaign.sol\":823:844  msg.sender == manager */\n      0xffffffffffffffffffffffffffffffffffffffff\n      and\n        /* \"Campaign.sol\":823:833  msg.sender */\n      caller\n        /* \"Campaign.sol\":823:844  msg.sender == manager */\n      0xffffffffffffffffffffffffffffffffffffffff\n      and\n      eq\n        /* \"Campaign.sol\":815:882  require(msg.sender == manager, \"Action restricted to the manager!\") */\n      tag_56\n      jumpi\n      mload(0x40)\n      0x08c379a000000000000000000000000000000000000000000000000000000000\n      dup2\n      mstore\n      0x04\n      add\n      tag_57\n      swap1\n      tag_58\n      jump\t// in\n    tag_57:\n      mload(0x40)\n      dup1\n      swap2\n      sub\n      swap1\n      revert\n    tag_56:\n        /* \"Campaign.sol\":2062:2085  Request storage request */\n      0x00\n        /* \"Campaign.sol\":2088:2096  requests */\n      0x04\n        /* \"Campaign.sol\":2097:2102  index */\n      dup3\n        /* \"Campaign.sol\":2088:2103  requests[index] */\n      dup2\n      sload\n      dup2\n      lt\n      tag_60\n      jumpi\n      tag_61\n      tag_62\n      jump\t// in\n    tag_61:\n    tag_60:\n      swap1\n      0x00\n      mstore\n      keccak256(0x00, 0x20)\n      swap1\n      0x05\n      mul\n      add\n        /* \"Campaign.sol\":2062:2103  Request storage request = requests[index] */\n      swap1\n      pop\n        /* \"Campaign.sol\":2163:2164  2 */\n      0x02\n        /* \"Campaign.sol\":2146:2160  approversCount */\n      sload(0x03)\n        /* \"Campaign.sol\":2146:2164  approversCount / 2 */\n      tag_64\n      swap2\n      swap1\n      tag_65\n      jump\t// in\n    tag_64:\n        /* \"Campaign.sol\":2121:2128  request */\n      dup2\n        /* \"Campaign.sol\":2121:2142  request.approvalCount */\n      0x03\n      add\n      sload\n        /* \"Campaign.sol\":2121:2165  request.approvalCount > (approversCount / 2) */\n      gt\n        /* \"Campaign.sol\":2113:2215  require(request.approvalCount > (approversCount / 2), \"Request didn't receive minimum approvals yet!\") */\n      tag_66\n      jumpi\n      mload(0x40)\n      0x08c379a000000000000000000000000000000000000000000000000000000000\n      dup2\n      mstore\n      0x04\n      add\n      tag_67\n      swap1\n      tag_68\n      jump\t// in\n    tag_67:\n      mload(0x40)\n      dup1\n      swap2\n      sub\n      swap1\n      revert\n    tag_66:\n        /* \"Campaign.sol\":2234:2241  request */\n      dup1\n        /* \"Campaign.sol\":2234:2250  request.complete */\n      0x02\n      add\n      0x14\n      swap1\n      sload\n      swap1\n      0x0100\n      exp\n      swap1\n      div\n      0xff\n      and\n        /* \"Campaign.sol\":2233:2250  !request.complete */\n      iszero\n        /* \"Campaign.sol\":2225:2283  require(!request.complete, \"Request is already complete!\") */\n      tag_69\n      jumpi\n      mload(0x40)\n      0x08c379a000000000000000000000000000000000000000000000000000000000\n      dup2\n      mstore\n      0x04\n      add\n      tag_70\n      swap1\n      tag_71\n      jump\t// in\n    tag_70:\n      mload(0x40)\n      dup1\n      swap2\n      sub\n      swap1\n      revert\n    tag_69:\n        /* \"Campaign.sol\":2301:2308  request */\n      dup1\n        /* \"Campaign.sol\":2301:2318  request.recipient */\n      0x02\n      add\n      0x00\n      swap1\n      sload\n      swap1\n      0x0100\n      exp\n      swap1\n      div\n      0xffffffffffffffffffffffffffffffffffffffff\n      and\n        /* \"Campaign.sol\":2293:2328  payable(request.recipient).transfer */\n      0xffffffffffffffffffffffffffffffffffffffff\n      and\n        /* \"Campaign.sol\":2293:2343  payable(request.recipient).transfer(request.value) */\n      0x08fc\n        /* \"Campaign.sol\":2329:2336  request */\n      dup3\n        /* \"Campaign.sol\":2329:2342  request.value */\n      0x01\n      add\n      sload\n        /* \"Campaign.sol\":2293:2343  payable(request.recipient).transfer(request.value) */\n      swap1\n      dup2\n      iszero\n      mul\n      swap1\n      mload(0x40)\n      0x00\n      mload(0x40)\n      dup1\n      dup4\n      sub\n      dup2\n      dup6\n      dup9\n      dup9\n      call\n      swap4\n      pop\n      pop\n      pop\n      pop\n      iszero\n      dup1\n      iszero\n      tag_73\n      jumpi\n      returndatasize\n      0x00\n      dup1\n      returndatacopy\n      revert(0x00, returndatasize)\n    tag_73:\n      pop\n        /* \"Campaign.sol\":2372:2376  true */\n      0x01\n        /* \"Campaign.sol\":2353:2360  request */\n      dup2\n        /* \"Campaign.sol\":2353:2369  request.complete */\n      0x02\n      add\n      0x14\n        /* \"Campaign.sol\":2353:2376  request.complete = true */\n      0x0100\n      exp\n      dup2\n      sload\n      dup2\n      0xff\n      mul\n      not\n      and\n      swap1\n      dup4\n      iszero\n      iszero\n      mul\n      or\n      swap1\n      sstore\n      pop\n        /* \"Campaign.sol\":2052:2383  {... */\n      pop\n        /* \"Campaign.sol\":1997:2383  function finalizeRequest(uint index) public restricted {... */\n      pop\n      jump\t// out\n        /* \"Campaign.sol\":672:713  mapping(address => bool) public approvers */\n    tag_21:\n      mstore(0x20, 0x02)\n      dup1\n      0x00\n      mstore\n      keccak256(0x00, 0x40)\n      0x00\n      swap2\n      pop\n      sload\n      swap1\n      0x0100\n      exp\n      swap1\n      div\n      0xff\n      and\n      dup2\n      jump\t// out\n        /* \"Campaign.sol\":1649:1991  function approveRequesg(uint index) public {... */\n    tag_27:\n        /* \"Campaign.sol\":1702:1725  Request storage request */\n      0x00\n        /* \"Campaign.sol\":1728:1736  requests */\n      0x04\n        /* \"Campaign.sol\":1737:1742  index */\n      dup3\n        /* \"Campaign.sol\":1728:1743  requests[index] */\n      dup2\n      sload\n      dup2\n      lt\n      tag_75\n      jumpi\n      tag_76\n      tag_62\n      jump\t// in\n    tag_76:\n    tag_75:\n      swap1\n      0x00\n      mstore\n      keccak256(0x00, 0x20)\n      swap1\n      0x05\n      mul\n      add\n        /* \"Campaign.sol\":1702:1743  Request storage request = requests[index] */\n      swap1\n      pop\n        /* \"Campaign.sol\":1761:1770  approvers */\n      0x02\n        /* \"Campaign.sol\":1761:1782  approvers[msg.sender] */\n      0x00\n        /* \"Campaign.sol\":1771:1781  msg.sender */\n      caller\n        /* \"Campaign.sol\":1761:1782  approvers[msg.sender] */\n      0xffffffffffffffffffffffffffffffffffffffff\n      and\n      0xffffffffffffffffffffffffffffffffffffffff\n      and\n      dup2\n      mstore\n      0x20\n      add\n      swap1\n      dup2\n      mstore\n      0x20\n      add\n      0x00\n      keccak256\n      0x00\n      swap1\n      sload\n      swap1\n      0x0100\n      exp\n      swap1\n      div\n      0xff\n      and\n        /* \"Campaign.sol\":1753:1818  require(approvers[msg.sender], \"Action restricted to approvers!\") */\n      tag_78\n      jumpi\n      mload(0x40)\n      0x08c379a000000000000000000000000000000000000000000000000000000000\n      dup2\n      mstore\n      0x04\n      add\n      tag_79\n      swap1\n      tag_80\n      jump\t// in\n    tag_79:\n      mload(0x40)\n      dup1\n      swap2\n      sub\n      swap1\n      revert\n    tag_78:\n        /* \"Campaign.sol\":1837:1844  request */\n      dup1\n        /* \"Campaign.sol\":1837:1854  request.approvals */\n      0x04\n      add\n        /* \"Campaign.sol\":1837:1866  request.approvals[msg.sender] */\n      0x00\n        /* \"Campaign.sol\":1855:1865  msg.sender */\n      caller\n        /* \"Campaign.sol\":1837:1866  request.approvals[msg.sender] */\n      0xffffffffffffffffffffffffffffffffffffffff\n      and\n      0xffffffffffffffffffffffffffffffffffffffff\n      and\n      dup2\n      mstore\n      0x20\n      add\n      swap1\n      dup2\n      mstore\n      0x20\n      add\n      0x00\n      keccak256\n      0x00\n      swap1\n      sload\n      swap1\n      0x0100\n      exp\n      swap1\n      div\n      0xff\n      and\n        /* \"Campaign.sol\":1836:1866  !request.approvals[msg.sender] */\n      iszero\n        /* \"Campaign.sol\":1828:1905  require(!request.approvals[msg.sender], \"You already approved this request.\") */\n      tag_81\n      jumpi\n      mload(0x40)\n      0x08c379a000000000000000000000000000000000000000000000000000000000\n      dup2\n      mstore\n      0x04\n      add\n      tag_82\n      swap1\n      tag_83\n      jump\t// in\n    tag_82:\n      mload(0x40)\n      dup1\n      swap2\n      sub\n      swap1\n      revert\n    tag_81:\n        /* \"Campaign.sol\":1947:1951  true */\n      0x01\n        /* \"Campaign.sol\":1915:1922  request */\n      dup2\n        /* \"Campaign.sol\":1915:1932  request.approvals */\n      0x04\n      add\n        /* \"Campaign.sol\":1915:1944  request.approvals[msg.sender] */\n      0x00\n        /* \"Campaign.sol\":1933:1943  msg.sender */\n      caller\n        /* \"Campaign.sol\":1915:1944  request.approvals[msg.sender] */\n      0xffffffffffffffffffffffffffffffffffffffff\n      and\n      0xffffffffffffffffffffffffffffffffffffffff\n      and\n      dup2\n      mstore\n      0x20\n      add\n      swap1\n      dup2\n      mstore\n      0x20\n      add\n      0x00\n      keccak256\n      0x00\n        /* \"Campaign.sol\":1915:1951  request.approvals[msg.sender] = true */\n      0x0100\n      exp\n      dup2\n      sload\n      dup2\n      0xff\n      mul\n      not\n      and\n      swap1\n      dup4\n      iszero\n      iszero\n      mul\n      or\n      swap1\n      sstore\n      pop\n        /* \"Campaign.sol\":1961:1968  request */\n      dup1\n        /* \"Campaign.sol\":1961:1982  request.approvalCount */\n      0x03\n      add\n      0x00\n        /* \"Campaign.sol\":1961:1984  request.approvalCount++ */\n      dup2\n      sload\n      dup1\n      swap3\n      swap2\n      swap1\n      tag_84\n      swap1\n      tag_85\n      jump\t// in\n    tag_84:\n      swap2\n      swap1\n      pop\n      sstore\n      pop\n        /* \"Campaign.sol\":1692:1991  {... */\n      pop\n        /* \"Campaign.sol\":1649:1991  function approveRequesg(uint index) public {... */\n      pop\n      jump\t// out\n        /* \"Campaign.sol\":607:629  address public manager */\n    tag_30:\n      0x00\n      dup1\n      sload\n      swap1\n      0x0100\n      exp\n      swap1\n      div\n      0xffffffffffffffffffffffffffffffffffffffff\n      and\n      dup2\n      jump\t// out\n        /* \"Campaign.sol\":751:776  Request[] public requests */\n    tag_36:\n      0x04\n      dup2\n      dup2\n      sload\n      dup2\n      lt\n      tag_86\n      jumpi\n      0x00\n      dup1\n      revert\n    tag_86:\n      swap1\n      0x00\n      mstore\n      keccak256(0x00, 0x20)\n      swap1\n      0x05\n      mul\n      add\n      0x00\n      swap2\n      pop\n      swap1\n      pop\n      dup1\n      0x00\n      add\n      dup1\n      sload\n      tag_88\n      swap1\n      tag_89\n      jump\t// in\n    tag_88:\n      dup1\n      0x1f\n      add\n      0x20\n      dup1\n      swap2\n      div\n      mul\n      0x20\n      add\n      mload(0x40)\n      swap1\n      dup2\n      add\n      0x40\n      mstore\n      dup1\n      swap3\n      swap2\n      swap1\n      dup2\n      dup2\n      mstore\n      0x20\n      add\n      dup3\n      dup1\n      sload\n      tag_90\n      swap1\n      tag_89\n      jump\t// in\n    tag_90:\n      dup1\n      iszero\n      tag_91\n      jumpi\n      dup1\n      0x1f\n      lt\n      tag_92\n      jumpi\n      0x0100\n      dup1\n      dup4\n      sload\n      div\n      mul\n      dup4\n      mstore\n      swap2\n      0x20\n      add\n      swap2\n      jump(tag_91)\n    tag_92:\n      dup3\n      add\n      swap2\n      swap1\n      0x00\n      mstore\n      keccak256(0x00, 0x20)\n      swap1\n    tag_93:\n      dup2\n      sload\n      dup2\n      mstore\n      swap1\n      0x01\n      add\n      swap1\n      0x20\n      add\n      dup1\n      dup4\n      gt\n      tag_93\n      jumpi\n      dup3\n      swap1\n      sub\n      0x1f\n      and\n      dup3\n      add\n      swap2\n    tag_91:\n      pop\n      pop\n      pop\n      pop\n      pop\n      swap1\n      dup1\n      0x01\n      add\n      sload\n      swap1\n      dup1\n      0x02\n      add\n      0x00\n      swap1\n      sload\n      swap1\n      0x0100\n      exp\n      swap1\n      div\n      0xffffffffffffffffffffffffffffffffffffffff\n      and\n      swap1\n      dup1\n      0x02\n      add\n      0x14\n      swap1\n      sload\n      swap1\n      0x0100\n      exp\n      swap1\n      div\n      0xff\n      and\n      swap1\n      dup1\n      0x03\n      add\n      sload\n      swap1\n      pop\n      dup6\n      jump\t// out\n        /* \"Campaign.sol\":719:745  uint public approversCount */\n    tag_41:\n      sload(0x03)\n      dup2\n      jump\t// out\n        /* \"Campaign.sol\":1371:1643  function createRequest(string calldata description, uint value, address recipient) public restricted {... */\n    tag_48:\n        /* \"Campaign.sol\":837:844  manager */\n      0x00\n      dup1\n      sload\n      swap1\n      0x0100\n      exp\n      swap1\n      div\n      0xffffffffffffffffffffffffffffffffffffffff\n      and\n        /* \"Campaign.sol\":823:844  msg.sender == manager */\n      0xffffffffffffffffffffffffffffffffffffffff\n      and\n        /* \"Campaign.sol\":823:833  msg.sender */\n      caller\n        /* \"Campaign.sol\":823:844  msg.sender == manager */\n      0xffffffffffffffffffffffffffffffffffffffff\n      and\n      eq\n        /* \"Campaign.sol\":815:882  require(msg.sender == manager, \"Action restricted to the manager!\") */\n      tag_95\n      jumpi\n      mload(0x40)\n      0x08c379a000000000000000000000000000000000000000000000000000000000\n      dup2\n      mstore\n      0x04\n      add\n      tag_96\n      swap1\n      tag_58\n      jump\t// in\n    tag_96:\n      mload(0x40)\n      dup1\n      swap2\n      sub\n      swap1\n      revert\n    tag_95:\n        /* \"Campaign.sol\":1482:1505  Request storage request */\n      0x00\n        /* \"Campaign.sol\":1508:1516  requests */\n      0x04\n        /* \"Campaign.sol\":1508:1523  requests.push() */\n      0x01\n      dup2\n      0x01\n      dup2\n      sload\n      add\n      dup1\n      dup3\n      sstore\n      dup1\n      swap2\n      pop\n      pop\n      sub\n      swap1\n      0x00\n      mstore\n      keccak256(0x00, 0x20)\n      swap1\n      0x05\n      mul\n      add\n        /* \"Campaign.sol\":1482:1523  Request storage request = requests.push() */\n      swap1\n      pop\n        /* \"Campaign.sol\":1555:1566  description */\n      dup5\n      dup5\n        /* \"Campaign.sol\":1533:1540  request */\n      dup3\n        /* \"Campaign.sol\":1533:1552  request.description */\n      0x00\n      add\n        /* \"Campaign.sol\":1533:1566  request.description = description */\n      swap2\n      swap1\n      tag_99\n      swap3\n      swap2\n      swap1\n      tag_100\n      jump\t// in\n    tag_99:\n      pop\n        /* \"Campaign.sol\":1592:1597  value */\n      dup3\n        /* \"Campaign.sol\":1576:1583  request */\n      dup2\n        /* \"Campaign.sol\":1576:1589  request.value */\n      0x01\n      add\n        /* \"Campaign.sol\":1576:1597  request.value = value */\n      dup2\n      swap1\n      sstore\n      pop\n        /* \"Campaign.sol\":1627:1636  recipient */\n      dup2\n        /* \"Campaign.sol\":1607:1614  request */\n      dup2\n        /* \"Campaign.sol\":1607:1624  request.recipient */\n      0x02\n      add\n      0x00\n        /* \"Campaign.sol\":1607:1636  request.recipient = recipient */\n      0x0100\n      exp\n      dup2\n      sload\n      dup2\n      0xffffffffffffffffffffffffffffffffffffffff\n      mul\n      not\n      and\n      swap1\n      dup4\n      0xffffffffffffffffffffffffffffffffffffffff\n      and\n      mul\n      or\n      swap1\n      sstore\n      pop\n        /* \"Campaign.sol\":1472:1643  {... */\n      pop\n        /* \"Campaign.sol\":1371:1643  function createRequest(string calldata description, uint value, address recipient) public restricted {... */\n      pop\n      pop\n      pop\n      pop\n      jump\t// out\n        /* \"Campaign.sol\":635:666  uint public minimumContribution */\n    tag_51:\n      sload(0x01)\n      dup2\n      jump\t// out\n        /* \"Campaign.sol\":1056:1365  function contribute() public payable {... */\n    tag_54:\n        /* \"Campaign.sol\":1124:1143  minimumContribution */\n      sload(0x01)\n        /* \"Campaign.sol\":1111:1120  msg.value */\n      callvalue\n        /* \"Campaign.sol\":1111:1143  msg.value >= minimumContribution */\n      lt\n      iszero\n        /* \"Campaign.sol\":1103:1208  require(msg.value >= minimumContribution, \"Value must be greater than or equal to minimum contribution.\") */\n      tag_102\n      jumpi\n      mload(0x40)\n      0x08c379a000000000000000000000000000000000000000000000000000000000\n      dup2\n      mstore\n      0x04\n      add\n      tag_103\n      swap1\n      tag_104\n      jump\t// in\n    tag_103:\n      mload(0x40)\n      dup1\n      swap2\n      sub\n      swap1\n      revert\n    tag_102:\n        /* \"Campaign.sol\":1227:1236  approvers */\n      0x02\n        /* \"Campaign.sol\":1227:1248  approvers[msg.sender] */\n      0x00\n        /* \"Campaign.sol\":1237:1247  msg.sender */\n      caller\n        /* \"Campaign.sol\":1227:1248  approvers[msg.sender] */\n      0xffffffffffffffffffffffffffffffffffffffff\n      and\n      0xffffffffffffffffffffffffffffffffffffffff\n      and\n      dup2\n      mstore\n      0x20\n      add\n      swap1\n      dup2\n      mstore\n      0x20\n      add\n      0x00\n      keccak256\n      0x00\n      swap1\n      sload\n      swap1\n      0x0100\n      exp\n      swap1\n      div\n      0xff\n      and\n        /* \"Campaign.sol\":1226:1248  !approvers[msg.sender] */\n      iszero\n        /* \"Campaign.sol\":1218:1294  require(!approvers[msg.sender], \"You already contributed to this campaign.\") */\n      tag_105\n      jumpi\n      mload(0x40)\n      0x08c379a000000000000000000000000000000000000000000000000000000000\n      dup2\n      mstore\n      0x04\n      add\n      tag_106\n      swap1\n      tag_107\n      jump\t// in\n    tag_106:\n      mload(0x40)\n      dup1\n      swap2\n      sub\n      swap1\n      revert\n    tag_105:\n        /* \"Campaign.sol\":1328:1332  true */\n      0x01\n        /* \"Campaign.sol\":1304:1313  approvers */\n      0x02\n        /* \"Campaign.sol\":1304:1325  approvers[msg.sender] */\n      0x00\n        /* \"Campaign.sol\":1314:1324  msg.sender */\n      caller\n        /* \"Campaign.sol\":1304:1325  approvers[msg.sender] */\n      0xffffffffffffffffffffffffffffffffffffffff\n      and\n      0xffffffffffffffffffffffffffffffffffffffff\n      and\n      dup2\n      mstore\n      0x20\n      add\n      swap1\n      dup2\n      mstore\n      0x20\n      add\n      0x00\n      keccak256\n      0x00\n        /* \"Campaign.sol\":1304:1332  approvers[msg.sender] = true */\n      0x0100\n      exp\n      dup2\n      sload\n      dup2\n      0xff\n      mul\n      not\n      and\n      swap1\n      dup4\n      iszero\n      iszero\n      mul\n      or\n      swap1\n      sstore\n      pop\n        /* \"Campaign.sol\":1342:1356  approversCount */\n      0x03\n      0x00\n        /* \"Campaign.sol\":1342:1358  approversCount++ */\n      dup2\n      sload\n      dup1\n      swap3\n      swap2\n      swap1\n      tag_108\n      swap1\n      tag_85\n      jump\t// in\n    tag_108:\n      swap2\n      swap1\n      pop\n      sstore\n      pop\n        /* \"Campaign.sol\":1056:1365  function contribute() public payable {... */\n      jump\t// out\n    tag_100:\n      dup3\n      dup1\n      sload\n      tag_109\n      swap1\n      tag_89\n      jump\t// in\n    tag_109:\n      swap1\n      0x00\n      mstore\n      keccak256(0x00, 0x20)\n      swap1\n      0x1f\n      add\n      0x20\n      swap1\n      div\n      dup2\n      add\n      swap3\n      dup3\n      tag_111\n      jumpi\n      0x00\n      dup6\n      sstore\n      jump(tag_110)\n    tag_111:\n      dup3\n      0x1f\n      lt\n      tag_112\n      jumpi\n      dup1\n      calldataload\n      not(0xff)\n      and\n      dup4\n      dup1\n      add\n      or\n      dup6\n      sstore\n      jump(tag_110)\n    tag_112:\n      dup3\n      dup1\n      add\n      0x01\n      add\n      dup6\n      sstore\n      dup3\n      iszero\n      tag_110\n      jumpi\n      swap2\n      dup3\n      add\n    tag_113:\n      dup3\n      dup2\n      gt\n      iszero\n      tag_114\n      jumpi\n      dup3\n      calldataload\n      dup3\n      sstore\n      swap2\n      0x20\n      add\n      swap2\n      swap1\n      0x01\n      add\n      swap1\n      jump(tag_113)\n    tag_114:\n    tag_110:\n      pop\n      swap1\n      pop\n      tag_115\n      swap2\n      swap1\n      tag_116\n      jump\t// in\n    tag_115:\n      pop\n      swap1\n      jump\t// out\n    tag_116:\n    tag_117:\n      dup1\n      dup3\n      gt\n      iszero\n      tag_118\n      jumpi\n      0x00\n      dup2\n      0x00\n      swap1\n      sstore\n      pop\n      0x01\n      add\n      jump(tag_117)\n    tag_118:\n      pop\n      swap1\n      jump\t// out\n        /* \"#utility.yul\":88:205   */\n    tag_120:\n        /* \"#utility.yul\":197:198   */\n      0x00\n        /* \"#utility.yul\":194:195   */\n      dup1\n        /* \"#utility.yul\":187:199   */\n      revert\n        /* \"#utility.yul\":211:328   */\n    tag_121:\n        /* \"#utility.yul\":320:321   */\n      0x00\n        /* \"#utility.yul\":317:318   */\n      dup1\n        /* \"#utility.yul\":310:322   */\n      revert\n        /* \"#utility.yul\":334:411   */\n    tag_122:\n        /* \"#utility.yul\":371:378   */\n      0x00\n        /* \"#utility.yul\":400:405   */\n      dup2\n        /* \"#utility.yul\":389:405   */\n      swap1\n      pop\n        /* \"#utility.yul\":334:411   */\n      swap2\n      swap1\n      pop\n      jump\t// out\n        /* \"#utility.yul\":417:539   */\n    tag_123:\n        /* \"#utility.yul\":490:514   */\n      tag_165\n        /* \"#utility.yul\":508:513   */\n      dup2\n        /* \"#utility.yul\":490:514   */\n      tag_122\n      jump\t// in\n    tag_165:\n        /* \"#utility.yul\":483:488   */\n      dup2\n        /* \"#utility.yul\":480:515   */\n      eq\n        /* \"#utility.yul\":470:533   */\n      tag_166\n      jumpi\n        /* \"#utility.yul\":529:530   */\n      0x00\n        /* \"#utility.yul\":526:527   */\n      dup1\n        /* \"#utility.yul\":519:531   */\n      revert\n        /* \"#utility.yul\":470:533   */\n    tag_166:\n        /* \"#utility.yul\":417:539   */\n      pop\n      jump\t// out\n        /* \"#utility.yul\":545:684   */\n    tag_124:\n        /* \"#utility.yul\":591:596   */\n      0x00\n        /* \"#utility.yul\":629:635   */\n      dup2\n        /* \"#utility.yul\":616:636   */\n      calldataload\n        /* \"#utility.yul\":607:636   */\n      swap1\n      pop\n        /* \"#utility.yul\":645:678   */\n      tag_168\n        /* \"#utility.yul\":672:677   */\n      dup2\n        /* \"#utility.yul\":645:678   */\n      tag_123\n      jump\t// in\n    tag_168:\n        /* \"#utility.yul\":545:684   */\n      swap3\n      swap2\n      pop\n      pop\n      jump\t// out\n        /* \"#utility.yul\":690:1019   */\n    tag_15:\n        /* \"#utility.yul\":749:755   */\n      0x00\n        /* \"#utility.yul\":798:800   */\n      0x20\n        /* \"#utility.yul\":786:795   */\n      dup3\n        /* \"#utility.yul\":777:784   */\n      dup5\n        /* \"#utility.yul\":773:796   */\n      sub\n        /* \"#utility.yul\":769:801   */\n      slt\n        /* \"#utility.yul\":766:885   */\n      iszero\n      tag_170\n      jumpi\n        /* \"#utility.yul\":804:883   */\n      tag_171\n      tag_120\n      jump\t// in\n    tag_171:\n        /* \"#utility.yul\":766:885   */\n    tag_170:\n        /* \"#utility.yul\":924:925   */\n      0x00\n        /* \"#utility.yul\":949:1002   */\n      tag_172\n        /* \"#utility.yul\":994:1001   */\n      dup5\n        /* \"#utility.yul\":985:991   */\n      dup3\n        /* \"#utility.yul\":974:983   */\n      dup6\n        /* \"#utility.yul\":970:992   */\n      add\n        /* \"#utility.yul\":949:1002   */\n      tag_124\n      jump\t// in\n    tag_172:\n        /* \"#utility.yul\":939:1002   */\n      swap2\n      pop\n        /* \"#utility.yul\":895:1012   */\n      pop\n        /* \"#utility.yul\":690:1019   */\n      swap3\n      swap2\n      pop\n      pop\n      jump\t// out\n        /* \"#utility.yul\":1025:1151   */\n    tag_125:\n        /* \"#utility.yul\":1062:1069   */\n      0x00\n        /* \"#utility.yul\":1102:1144   */\n      0xffffffffffffffffffffffffffffffffffffffff\n        /* \"#utility.yul\":1095:1100   */\n      dup3\n        /* \"#utility.yul\":1091:1145   */\n      and\n        /* \"#utility.yul\":1080:1145   */\n      swap1\n      pop\n        /* \"#utility.yul\":1025:1151   */\n      swap2\n      swap1\n      pop\n      jump\t// out\n        /* \"#utility.yul\":1157:1253   */\n    tag_126:\n        /* \"#utility.yul\":1194:1201   */\n      0x00\n        /* \"#utility.yul\":1223:1247   */\n      tag_175\n        /* \"#utility.yul\":1241:1246   */\n      dup3\n        /* \"#utility.yul\":1223:1247   */\n      tag_125\n      jump\t// in\n    tag_175:\n        /* \"#utility.yul\":1212:1247   */\n      swap1\n      pop\n        /* \"#utility.yul\":1157:1253   */\n      swap2\n      swap1\n      pop\n      jump\t// out\n        /* \"#utility.yul\":1259:1381   */\n    tag_127:\n        /* \"#utility.yul\":1332:1356   */\n      tag_177\n        /* \"#utility.yul\":1350:1355   */\n      dup2\n        /* \"#utility.yul\":1332:1356   */\n      tag_126\n      jump\t// in\n    tag_177:\n        /* \"#utility.yul\":1325:1330   */\n      dup2\n        /* \"#utility.yul\":1322:1357   */\n      eq\n        /* \"#utility.yul\":1312:1375   */\n      tag_178\n      jumpi\n        /* \"#utility.yul\":1371:1372   */\n      0x00\n        /* \"#utility.yul\":1368:1369   */\n      dup1\n        /* \"#utility.yul\":1361:1373   */\n      revert\n        /* \"#utility.yul\":1312:1375   */\n    tag_178:\n        /* \"#utility.yul\":1259:1381   */\n      pop\n      jump\t// out\n        /* \"#utility.yul\":1387:1526   */\n    tag_128:\n        /* \"#utility.yul\":1433:1438   */\n      0x00\n        /* \"#utility.yul\":1471:1477   */\n      dup2\n        /* \"#utility.yul\":1458:1478   */\n      calldataload\n        /* \"#utility.yul\":1449:1478   */\n      swap1\n      pop\n        /* \"#utility.yul\":1487:1520   */\n      tag_180\n        /* \"#utility.yul\":1514:1519   */\n      dup2\n        /* \"#utility.yul\":1487:1520   */\n      tag_127\n      jump\t// in\n    tag_180:\n        /* \"#utility.yul\":1387:1526   */\n      swap3\n      swap2\n      pop\n      pop\n      jump\t// out\n        /* \"#utility.yul\":1532:1861   */\n    tag_20:\n        /* \"#utility.yul\":1591:1597   */\n      0x00\n        /* \"#utility.yul\":1640:1642   */\n      0x20\n        /* \"#utility.yul\":1628:1637   */\n      dup3\n        /* \"#utility.yul\":1619:1626   */\n      dup5\n        /* \"#utility.yul\":1615:1638   */\n      sub\n        /* \"#utility.yul\":1611:1643   */\n      slt\n        /* \"#utility.yul\":1608:1727   */\n      iszero\n      tag_182\n      jumpi\n        /* \"#utility.yul\":1646:1725   */\n      tag_183\n      tag_120\n      jump\t// in\n    tag_183:\n        /* \"#utility.yul\":1608:1727   */\n    tag_182:\n        /* \"#utility.yul\":1766:1767   */\n      0x00\n        /* \"#utility.yul\":1791:1844   */\n      tag_184\n        /* \"#utility.yul\":1836:1843   */\n      dup5\n        /* \"#utility.yul\":1827:1833   */\n      dup3\n        /* \"#utility.yul\":1816:1825   */\n      dup6\n        /* \"#utility.yul\":1812:1834   */\n      add\n        /* \"#utility.yul\":1791:1844   */\n      tag_128\n      jump\t// in\n    tag_184:\n        /* \"#utility.yul\":1781:1844   */\n      swap2\n      pop\n        /* \"#utility.yul\":1737:1854   */\n      pop\n        /* \"#utility.yul\":1532:1861   */\n      swap3\n      swap2\n      pop\n      pop\n      jump\t// out\n        /* \"#utility.yul\":1867:1957   */\n    tag_129:\n        /* \"#utility.yul\":1901:1908   */\n      0x00\n        /* \"#utility.yul\":1944:1949   */\n      dup2\n        /* \"#utility.yul\":1937:1950   */\n      iszero\n        /* \"#utility.yul\":1930:1951   */\n      iszero\n        /* \"#utility.yul\":1919:1951   */\n      swap1\n      pop\n        /* \"#utility.yul\":1867:1957   */\n      swap2\n      swap1\n      pop\n      jump\t// out\n        /* \"#utility.yul\":1963:2072   */\n    tag_130:\n        /* \"#utility.yul\":2044:2065   */\n      tag_187\n        /* \"#utility.yul\":2059:2064   */\n      dup2\n        /* \"#utility.yul\":2044:2065   */\n      tag_129\n      jump\t// in\n    tag_187:\n        /* \"#utility.yul\":2039:2042   */\n      dup3\n        /* \"#utility.yul\":2032:2066   */\n      mstore\n        /* \"#utility.yul\":1963:2072   */\n      pop\n      pop\n      jump\t// out\n        /* \"#utility.yul\":2078:2288   */\n    tag_23:\n        /* \"#utility.yul\":2165:2169   */\n      0x00\n        /* \"#utility.yul\":2203:2205   */\n      0x20\n        /* \"#utility.yul\":2192:2201   */\n      dup3\n        /* \"#utility.yul\":2188:2206   */\n      add\n        /* \"#utility.yul\":2180:2206   */\n      swap1\n      pop\n        /* \"#utility.yul\":2216:2281   */\n      tag_189\n        /* \"#utility.yul\":2278:2279   */\n      0x00\n        /* \"#utility.yul\":2267:2276   */\n      dup4\n        /* \"#utility.yul\":2263:2280   */\n      add\n        /* \"#utility.yul\":2254:2260   */\n      dup5\n        /* \"#utility.yul\":2216:2281   */\n      tag_130\n      jump\t// in\n    tag_189:\n        /* \"#utility.yul\":2078:2288   */\n      swap3\n      swap2\n      pop\n      pop\n      jump\t// out\n        /* \"#utility.yul\":2294:2412   */\n    tag_131:\n        /* \"#utility.yul\":2381:2405   */\n      tag_191\n        /* \"#utility.yul\":2399:2404   */\n      dup2\n        /* \"#utility.yul\":2381:2405   */\n      tag_126\n      jump\t// in\n    tag_191:\n        /* \"#utility.yul\":2376:2379   */\n      dup3\n        /* \"#utility.yul\":2369:2406   */\n      mstore\n        /* \"#utility.yul\":2294:2412   */\n      pop\n      pop\n      jump\t// out\n        /* \"#utility.yul\":2418:2640   */\n    tag_32:\n        /* \"#utility.yul\":2511:2515   */\n      0x00\n        /* \"#utility.yul\":2549:2551   */\n      0x20\n        /* \"#utility.yul\":2538:2547   */\n      dup3\n        /* \"#utility.yul\":2534:2552   */\n      add\n        /* \"#utility.yul\":2526:2552   */\n      swap1\n      pop\n        /* \"#utility.yul\":2562:2633   */\n      tag_193\n        /* \"#utility.yul\":2630:2631   */\n      0x00\n        /* \"#utility.yul\":2619:2628   */\n      dup4\n        /* \"#utility.yul\":2615:2632   */\n      add\n        /* \"#utility.yul\":2606:2612   */\n      dup5\n        /* \"#utility.yul\":2562:2633   */\n      tag_131\n      jump\t// in\n    tag_193:\n        /* \"#utility.yul\":2418:2640   */\n      swap3\n      swap2\n      pop\n      pop\n      jump\t// out\n        /* \"#utility.yul\":2646:2745   */\n    tag_132:\n        /* \"#utility.yul\":2698:2704   */\n      0x00\n        /* \"#utility.yul\":2732:2737   */\n      dup2\n        /* \"#utility.yul\":2726:2738   */\n      mload\n        /* \"#utility.yul\":2716:2738   */\n      swap1\n      pop\n        /* \"#utility.yul\":2646:2745   */\n      swap2\n      swap1\n      pop\n      jump\t// out\n        /* \"#utility.yul\":2751:2920   */\n    tag_133:\n        /* \"#utility.yul\":2835:2846   */\n      0x00\n        /* \"#utility.yul\":2869:2875   */\n      dup3\n        /* \"#utility.yul\":2864:2867   */\n      dup3\n        /* \"#utility.yul\":2857:2876   */\n      mstore\n        /* \"#utility.yul\":2909:2913   */\n      0x20\n        /* \"#utility.yul\":2904:2907   */\n      dup3\n        /* \"#utility.yul\":2900:2914   */\n      add\n        /* \"#utility.yul\":2885:2914   */\n      swap1\n      pop\n        /* \"#utility.yul\":2751:2920   */\n      swap3\n      swap2\n      pop\n      pop\n      jump\t// out\n        /* \"#utility.yul\":2926:3233   */\n    tag_134:\n        /* \"#utility.yul\":2994:2995   */\n      0x00\n        /* \"#utility.yul\":3004:3117   */\n    tag_197:\n        /* \"#utility.yul\":3018:3024   */\n      dup4\n        /* \"#utility.yul\":3015:3016   */\n      dup2\n        /* \"#utility.yul\":3012:3025   */\n      lt\n        /* \"#utility.yul\":3004:3117   */\n      iszero\n      tag_199\n      jumpi\n        /* \"#utility.yul\":3103:3104   */\n      dup1\n        /* \"#utility.yul\":3098:3101   */\n      dup3\n        /* \"#utility.yul\":3094:3105   */\n      add\n        /* \"#utility.yul\":3088:3106   */\n      mload\n        /* \"#utility.yul\":3084:3085   */\n      dup2\n        /* \"#utility.yul\":3079:3082   */\n      dup5\n        /* \"#utility.yul\":3075:3086   */\n      add\n        /* \"#utility.yul\":3068:3107   */\n      mstore\n        /* \"#utility.yul\":3040:3042   */\n      0x20\n        /* \"#utility.yul\":3037:3038   */\n      dup2\n        /* \"#utility.yul\":3033:3043   */\n      add\n        /* \"#utility.yul\":3028:3043   */\n      swap1\n      pop\n        /* \"#utility.yul\":3004:3117   */\n      jump(tag_197)\n    tag_199:\n        /* \"#utility.yul\":3135:3141   */\n      dup4\n        /* \"#utility.yul\":3132:3133   */\n      dup2\n        /* \"#utility.yul\":3129:3142   */\n      gt\n        /* \"#utility.yul\":3126:3227   */\n      iszero\n      tag_200\n      jumpi\n        /* \"#utility.yul\":3215:3216   */\n      0x00\n        /* \"#utility.yul\":3206:3212   */\n      dup5\n        /* \"#utility.yul\":3201:3204   */\n      dup5\n        /* \"#utility.yul\":3197:3213   */\n      add\n        /* \"#utility.yul\":3190:3217   */\n      mstore\n        /* \"#utility.yul\":3126:3227   */\n    tag_200:\n        /* \"#utility.yul\":2975:3233   */\n      pop\n        /* \"#utility.yul\":2926:3233   */\n      pop\n      pop\n      pop\n      jump\t// out\n        /* \"#utility.yul\":3239:3341   */\n    tag_135:\n        /* \"#utility.yul\":3280:3286   */\n      0x00\n        /* \"#utility.yul\":3331:3333   */\n      0x1f\n        /* \"#utility.yul\":3327:3334   */\n      not\n        /* \"#utility.yul\":3322:3324   */\n      0x1f\n        /* \"#utility.yul\":3315:3320   */\n      dup4\n        /* \"#utility.yul\":3311:3325   */\n      add\n        /* \"#utility.yul\":3307:3335   */\n      and\n        /* \"#utility.yul\":3297:3335   */\n      swap1\n      pop\n        /* \"#utility.yul\":3239:3341   */\n      swap2\n      swap1\n      pop\n      jump\t// out\n        /* \"#utility.yul\":3347:3711   */\n    tag_136:\n        /* \"#utility.yul\":3435:3438   */\n      0x00\n        /* \"#utility.yul\":3463:3502   */\n      tag_203\n        /* \"#utility.yul\":3496:3501   */\n      dup3\n        /* \"#utility.yul\":3463:3502   */\n      tag_132\n      jump\t// in\n    tag_203:\n        /* \"#utility.yul\":3518:3589   */\n      tag_204\n        /* \"#utility.yul\":3582:3588   */\n      dup2\n        /* \"#utility.yul\":3577:3580   */\n      dup6\n        /* \"#utility.yul\":3518:3589   */\n      tag_133\n      jump\t// in\n    tag_204:\n        /* \"#utility.yul\":3511:3589   */\n      swap4\n      pop\n        /* \"#utility.yul\":3598:3650   */\n      tag_205\n        /* \"#utility.yul\":3643:3649   */\n      dup2\n        /* \"#utility.yul\":3638:3641   */\n      dup6\n        /* \"#utility.yul\":3631:3635   */\n      0x20\n        /* \"#utility.yul\":3624:3629   */\n      dup7\n        /* \"#utility.yul\":3620:3636   */\n      add\n        /* \"#utility.yul\":3598:3650   */\n      tag_134\n      jump\t// in\n    tag_205:\n        /* \"#utility.yul\":3675:3704   */\n      tag_206\n        /* \"#utility.yul\":3697:3703   */\n      dup2\n        /* \"#utility.yul\":3675:3704   */\n      tag_135\n      jump\t// in\n    tag_206:\n        /* \"#utility.yul\":3670:3673   */\n      dup5\n        /* \"#utility.yul\":3666:3705   */\n      add\n        /* \"#utility.yul\":3659:3705   */\n      swap2\n      pop\n        /* \"#utility.yul\":3439:3711   */\n      pop\n        /* \"#utility.yul\":3347:3711   */\n      swap3\n      swap2\n      pop\n      pop\n      jump\t// out\n        /* \"#utility.yul\":3717:3835   */\n    tag_137:\n        /* \"#utility.yul\":3804:3828   */\n      tag_208\n        /* \"#utility.yul\":3822:3827   */\n      dup2\n        /* \"#utility.yul\":3804:3828   */\n      tag_122\n      jump\t// in\n    tag_208:\n        /* \"#utility.yul\":3799:3802   */\n      dup3\n        /* \"#utility.yul\":3792:3829   */\n      mstore\n        /* \"#utility.yul\":3717:3835   */\n      pop\n      pop\n      jump\t// out\n        /* \"#utility.yul\":3841:4584   */\n    tag_38:\n        /* \"#utility.yul\":4060:4064   */\n      0x00\n        /* \"#utility.yul\":4098:4101   */\n      0xa0\n        /* \"#utility.yul\":4087:4096   */\n      dup3\n        /* \"#utility.yul\":4083:4102   */\n      add\n        /* \"#utility.yul\":4075:4102   */\n      swap1\n      pop\n        /* \"#utility.yul\":4148:4157   */\n      dup2\n        /* \"#utility.yul\":4142:4146   */\n      dup2\n        /* \"#utility.yul\":4138:4158   */\n      sub\n        /* \"#utility.yul\":4134:4135   */\n      0x00\n        /* \"#utility.yul\":4123:4132   */\n      dup4\n        /* \"#utility.yul\":4119:4136   */\n      add\n        /* \"#utility.yul\":4112:4159   */\n      mstore\n        /* \"#utility.yul\":4176:4254   */\n      tag_210\n        /* \"#utility.yul\":4249:4253   */\n      dup2\n        /* \"#utility.yul\":4240:4246   */\n      dup9\n        /* \"#utility.yul\":4176:4254   */\n      tag_136\n      jump\t// in\n    tag_210:\n        /* \"#utility.yul\":4168:4254   */\n      swap1\n      pop\n        /* \"#utility.yul\":4264:4336   */\n      tag_211\n        /* \"#utility.yul\":4332:4334   */\n      0x20\n        /* \"#utility.yul\":4321:4330   */\n      dup4\n        /* \"#utility.yul\":4317:4335   */\n      add\n        /* \"#utility.yul\":4308:4314   */\n      dup8\n        /* \"#utility.yul\":4264:4336   */\n      tag_137\n      jump\t// in\n    tag_211:\n        /* \"#utility.yul\":4346:4418   */\n      tag_212\n        /* \"#utility.yul\":4414:4416   */\n      0x40\n        /* \"#utility.yul\":4403:4412   */\n      dup4\n        /* \"#utility.yul\":4399:4417   */\n      add\n        /* \"#utility.yul\":4390:4396   */\n      dup7\n        /* \"#utility.yul\":4346:4418   */\n      tag_131\n      jump\t// in\n    tag_212:\n        /* \"#utility.yul\":4428:4494   */\n      tag_213\n        /* \"#utility.yul\":4490:4492   */\n      0x60\n        /* \"#utility.yul\":4479:4488   */\n      dup4\n        /* \"#utility.yul\":4475:4493   */\n      add\n        /* \"#utility.yul\":4466:4472   */\n      dup6\n        /* \"#utility.yul\":4428:4494   */\n      tag_130\n      jump\t// in\n    tag_213:\n        /* \"#utility.yul\":4504:4577   */\n      tag_214\n        /* \"#utility.yul\":4572:4575   */\n      0x80\n        /* \"#utility.yul\":4561:4570   */\n      dup4\n        /* \"#utility.yul\":4557:4576   */\n      add\n        /* \"#utility.yul\":4548:4554   */\n      dup5\n        /* \"#utility.yul\":4504:4577   */\n      tag_137\n      jump\t// in\n    tag_214:\n        /* \"#utility.yul\":3841:4584   */\n      swap7\n      swap6\n      pop\n      pop\n      pop\n      pop\n      pop\n      pop\n      jump\t// out\n        /* \"#utility.yul\":4590:4812   */\n    tag_43:\n        /* \"#utility.yul\":4683:4687   */\n      0x00\n        /* \"#utility.yul\":4721:4723   */\n      0x20\n        /* \"#utility.yul\":4710:4719   */\n      dup3\n        /* \"#utility.yul\":4706:4724   */\n      add\n        /* \"#utility.yul\":4698:4724   */\n      swap1\n      pop\n        /* \"#utility.yul\":4734:4805   */\n      tag_216\n        /* \"#utility.yul\":4802:4803   */\n      0x00\n        /* \"#utility.yul\":4791:4800   */\n      dup4\n        /* \"#utility.yul\":4787:4804   */\n      add\n        /* \"#utility.yul\":4778:4784   */\n      dup5\n        /* \"#utility.yul\":4734:4805   */\n      tag_137\n      jump\t// in\n    tag_216:\n        /* \"#utility.yul\":4590:4812   */\n      swap3\n      swap2\n      pop\n      pop\n      jump\t// out\n        /* \"#utility.yul\":4818:4935   */\n    tag_138:\n        /* \"#utility.yul\":4927:4928   */\n      0x00\n        /* \"#utility.yul\":4924:4925   */\n      dup1\n        /* \"#utility.yul\":4917:4929   */\n      revert\n        /* \"#utility.yul\":4941:5058   */\n    tag_139:\n        /* \"#utility.yul\":5050:5051   */\n      0x00\n        /* \"#utility.yul\":5047:5048   */\n      dup1\n        /* \"#utility.yul\":5040:5052   */\n      revert\n        /* \"#utility.yul\":5064:5181   */\n    tag_140:\n        /* \"#utility.yul\":5173:5174   */\n      0x00\n        /* \"#utility.yul\":5170:5171   */\n      dup1\n        /* \"#utility.yul\":5163:5175   */\n      revert\n        /* \"#utility.yul\":5201:5754   */\n    tag_141:\n        /* \"#utility.yul\":5259:5267   */\n      0x00\n        /* \"#utility.yul\":5269:5275   */\n      dup1\n        /* \"#utility.yul\":5319:5322   */\n      dup4\n        /* \"#utility.yul\":5312:5316   */\n      0x1f\n        /* \"#utility.yul\":5304:5310   */\n      dup5\n        /* \"#utility.yul\":5300:5317   */\n      add\n        /* \"#utility.yul\":5296:5323   */\n      slt\n        /* \"#utility.yul\":5286:5408   */\n      tag_221\n      jumpi\n        /* \"#utility.yul\":5327:5406   */\n      tag_222\n      tag_138\n      jump\t// in\n    tag_222:\n        /* \"#utility.yul\":5286:5408   */\n    tag_221:\n        /* \"#utility.yul\":5440:5446   */\n      dup3\n        /* \"#utility.yul\":5427:5447   */\n      calldataload\n        /* \"#utility.yul\":5417:5447   */\n      swap1\n      pop\n        /* \"#utility.yul\":5470:5488   */\n      0xffffffffffffffff\n        /* \"#utility.yul\":5462:5468   */\n      dup2\n        /* \"#utility.yul\":5459:5489   */\n      gt\n        /* \"#utility.yul\":5456:5573   */\n      iszero\n      tag_223\n      jumpi\n        /* \"#utility.yul\":5492:5571   */\n      tag_224\n      tag_139\n      jump\t// in\n    tag_224:\n        /* \"#utility.yul\":5456:5573   */\n    tag_223:\n        /* \"#utility.yul\":5606:5610   */\n      0x20\n        /* \"#utility.yul\":5598:5604   */\n      dup4\n        /* \"#utility.yul\":5594:5611   */\n      add\n        /* \"#utility.yul\":5582:5611   */\n      swap2\n      pop\n        /* \"#utility.yul\":5660:5663   */\n      dup4\n        /* \"#utility.yul\":5652:5656   */\n      0x01\n        /* \"#utility.yul\":5644:5650   */\n      dup3\n        /* \"#utility.yul\":5640:5657   */\n      mul\n        /* \"#utility.yul\":5630:5638   */\n      dup4\n        /* \"#utility.yul\":5626:5658   */\n      add\n        /* \"#utility.yul\":5623:5664   */\n      gt\n        /* \"#utility.yul\":5620:5748   */\n      iszero\n      tag_225\n      jumpi\n        /* \"#utility.yul\":5667:5746   */\n      tag_226\n      tag_140\n      jump\t// in\n    tag_226:\n        /* \"#utility.yul\":5620:5748   */\n    tag_225:\n        /* \"#utility.yul\":5201:5754   */\n      swap3\n      pop\n      swap3\n      swap1\n      pop\n      jump\t// out\n        /* \"#utility.yul\":5760:6579   */\n    tag_47:\n        /* \"#utility.yul\":5849:5855   */\n      0x00\n        /* \"#utility.yul\":5857:5863   */\n      dup1\n        /* \"#utility.yul\":5865:5871   */\n      0x00\n        /* \"#utility.yul\":5873:5879   */\n      dup1\n        /* \"#utility.yul\":5922:5924   */\n      0x60\n        /* \"#utility.yul\":5910:5919   */\n      dup6\n        /* \"#utility.yul\":5901:5908   */\n      dup8\n        /* \"#utility.yul\":5897:5920   */\n      sub\n        /* \"#utility.yul\":5893:5925   */\n      slt\n        /* \"#utility.yul\":5890:6009   */\n      iszero\n      tag_228\n      jumpi\n        /* \"#utility.yul\":5928:6007   */\n      tag_229\n      tag_120\n      jump\t// in\n    tag_229:\n        /* \"#utility.yul\":5890:6009   */\n    tag_228:\n        /* \"#utility.yul\":6076:6077   */\n      0x00\n        /* \"#utility.yul\":6065:6074   */\n      dup6\n        /* \"#utility.yul\":6061:6078   */\n      add\n        /* \"#utility.yul\":6048:6079   */\n      calldataload\n        /* \"#utility.yul\":6106:6124   */\n      0xffffffffffffffff\n        /* \"#utility.yul\":6098:6104   */\n      dup2\n        /* \"#utility.yul\":6095:6125   */\n      gt\n        /* \"#utility.yul\":6092:6209   */\n      iszero\n      tag_230\n      jumpi\n        /* \"#utility.yul\":6128:6207   */\n      tag_231\n      tag_121\n      jump\t// in\n    tag_231:\n        /* \"#utility.yul\":6092:6209   */\n    tag_230:\n        /* \"#utility.yul\":6241:6306   */\n      tag_232\n        /* \"#utility.yul\":6298:6305   */\n      dup8\n        /* \"#utility.yul\":6289:6295   */\n      dup3\n        /* \"#utility.yul\":6278:6287   */\n      dup9\n        /* \"#utility.yul\":6274:6296   */\n      add\n        /* \"#utility.yul\":6241:6306   */\n      tag_141\n      jump\t// in\n    tag_232:\n        /* \"#utility.yul\":6223:6306   */\n      swap5\n      pop\n      swap5\n      pop\n        /* \"#utility.yul\":6019:6316   */\n      pop\n        /* \"#utility.yul\":6355:6357   */\n      0x20\n        /* \"#utility.yul\":6381:6434   */\n      tag_233\n        /* \"#utility.yul\":6426:6433   */\n      dup8\n        /* \"#utility.yul\":6417:6423   */\n      dup3\n        /* \"#utility.yul\":6406:6415   */\n      dup9\n        /* \"#utility.yul\":6402:6424   */\n      add\n        /* \"#utility.yul\":6381:6434   */\n      tag_124\n      jump\t// in\n    tag_233:\n        /* \"#utility.yul\":6371:6434   */\n      swap3\n      pop\n        /* \"#utility.yul\":6326:6444   */\n      pop\n        /* \"#utility.yul\":6483:6485   */\n      0x40\n        /* \"#utility.yul\":6509:6562   */\n      tag_234\n        /* \"#utility.yul\":6554:6561   */\n      dup8\n        /* \"#utility.yul\":6545:6551   */\n      dup3\n        /* \"#utility.yul\":6534:6543   */\n      dup9\n        /* \"#utility.yul\":6530:6552   */\n      add\n        /* \"#utility.yul\":6509:6562   */\n      tag_128\n      jump\t// in\n    tag_234:\n        /* \"#utility.yul\":6499:6562   */\n      swap2\n      pop\n        /* \"#utility.yul\":6454:6572   */\n      pop\n        /* \"#utility.yul\":5760:6579   */\n      swap3\n      swap6\n      swap2\n      swap5\n      pop\n      swap3\n      pop\n      jump\t// out\n        /* \"#utility.yul\":6585:6805   */\n    tag_142:\n        /* \"#utility.yul\":6725:6759   */\n      0x416374696f6e207265737472696374656420746f20746865206d616e61676572\n        /* \"#utility.yul\":6721:6722   */\n      0x00\n        /* \"#utility.yul\":6713:6719   */\n      dup3\n        /* \"#utility.yul\":6709:6723   */\n      add\n        /* \"#utility.yul\":6702:6760   */\n      mstore\n        /* \"#utility.yul\":6794:6797   */\n      0x2100000000000000000000000000000000000000000000000000000000000000\n        /* \"#utility.yul\":6789:6791   */\n      0x20\n        /* \"#utility.yul\":6781:6787   */\n      dup3\n        /* \"#utility.yul\":6777:6792   */\n      add\n        /* \"#utility.yul\":6770:6798   */\n      mstore\n        /* \"#utility.yul\":6585:6805   */\n      pop\n      jump\t// out\n        /* \"#utility.yul\":6811:7177   */\n    tag_143:\n        /* \"#utility.yul\":6953:6956   */\n      0x00\n        /* \"#utility.yul\":6974:7041   */\n      tag_237\n        /* \"#utility.yul\":7038:7040   */\n      0x21\n        /* \"#utility.yul\":7033:7036   */\n      dup4\n        /* \"#utility.yul\":6974:7041   */\n      tag_133\n      jump\t// in\n    tag_237:\n        /* \"#utility.yul\":6967:7041   */\n      swap2\n      pop\n        /* \"#utility.yul\":7050:7143   */\n      tag_238\n        /* \"#utility.yul\":7139:7142   */\n      dup3\n        /* \"#utility.yul\":7050:7143   */\n      tag_142\n      jump\t// in\n    tag_238:\n        /* \"#utility.yul\":7168:7170   */\n      0x40\n        /* \"#utility.yul\":7163:7166   */\n      dup3\n        /* \"#utility.yul\":7159:7171   */\n      add\n        /* \"#utility.yul\":7152:7171   */\n      swap1\n      pop\n        /* \"#utility.yul\":6811:7177   */\n      swap2\n      swap1\n      pop\n      jump\t// out\n        /* \"#utility.yul\":7183:7602   */\n    tag_58:\n        /* \"#utility.yul\":7349:7353   */\n      0x00\n        /* \"#utility.yul\":7387:7389   */\n      0x20\n        /* \"#utility.yul\":7376:7385   */\n      dup3\n        /* \"#utility.yul\":7372:7390   */\n      add\n        /* \"#utility.yul\":7364:7390   */\n      swap1\n      pop\n        /* \"#utility.yul\":7436:7445   */\n      dup2\n        /* \"#utility.yul\":7430:7434   */\n      dup2\n        /* \"#utility.yul\":7426:7446   */\n      sub\n        /* \"#utility.yul\":7422:7423   */\n      0x00\n        /* \"#utility.yul\":7411:7420   */\n      dup4\n        /* \"#utility.yul\":7407:7424   */\n      add\n        /* \"#utility.yul\":7400:7447   */\n      mstore\n        /* \"#utility.yul\":7464:7595   */\n      tag_240\n        /* \"#utility.yul\":7590:7594   */\n      dup2\n        /* \"#utility.yul\":7464:7595   */\n      tag_143\n      jump\t// in\n    tag_240:\n        /* \"#utility.yul\":7456:7595   */\n      swap1\n      pop\n        /* \"#utility.yul\":7183:7602   */\n      swap2\n      swap1\n      pop\n      jump\t// out\n        /* \"#utility.yul\":7608:7788   */\n    tag_62:\n        /* \"#utility.yul\":7656:7733   */\n      0x4e487b7100000000000000000000000000000000000000000000000000000000\n        /* \"#utility.yul\":7653:7654   */\n      0x00\n        /* \"#utility.yul\":7646:7734   */\n      mstore\n        /* \"#utility.yul\":7753:7757   */\n      0x32\n        /* \"#utility.yul\":7750:7751   */\n      0x04\n        /* \"#utility.yul\":7743:7758   */\n      mstore\n        /* \"#utility.yul\":7777:7781   */\n      0x24\n        /* \"#utility.yul\":7774:7775   */\n      0x00\n        /* \"#utility.yul\":7767:7782   */\n      revert\n        /* \"#utility.yul\":7794:7974   */\n    tag_144:\n        /* \"#utility.yul\":7842:7919   */\n      0x4e487b7100000000000000000000000000000000000000000000000000000000\n        /* \"#utility.yul\":7839:7840   */\n      0x00\n        /* \"#utility.yul\":7832:7920   */\n      mstore\n        /* \"#utility.yul\":7939:7943   */\n      0x12\n        /* \"#utility.yul\":7936:7937   */\n      0x04\n        /* \"#utility.yul\":7929:7944   */\n      mstore\n        /* \"#utility.yul\":7963:7967   */\n      0x24\n        /* \"#utility.yul\":7960:7961   */\n      0x00\n        /* \"#utility.yul\":7953:7968   */\n      revert\n        /* \"#utility.yul\":7980:8160   */\n    tag_145:\n        /* \"#utility.yul\":8028:8105   */\n      0x4e487b7100000000000000000000000000000000000000000000000000000000\n        /* \"#utility.yul\":8025:8026   */\n      0x00\n        /* \"#utility.yul\":8018:8106   */\n      mstore\n        /* \"#utility.yul\":8125:8129   */\n      0x11\n        /* \"#utility.yul\":8122:8123   */\n      0x04\n        /* \"#utility.yul\":8115:8130   */\n      mstore\n        /* \"#utility.yul\":8149:8153   */\n      0x24\n        /* \"#utility.yul\":8146:8147   */\n      0x00\n        /* \"#utility.yul\":8139:8154   */\n      revert\n        /* \"#utility.yul\":8166:8351   */\n    tag_65:\n        /* \"#utility.yul\":8206:8207   */\n      0x00\n        /* \"#utility.yul\":8223:8243   */\n      tag_245\n        /* \"#utility.yul\":8241:8242   */\n      dup3\n        /* \"#utility.yul\":8223:8243   */\n      tag_122\n      jump\t// in\n    tag_245:\n        /* \"#utility.yul\":8218:8243   */\n      swap2\n      pop\n        /* \"#utility.yul\":8257:8277   */\n      tag_246\n        /* \"#utility.yul\":8275:8276   */\n      dup4\n        /* \"#utility.yul\":8257:8277   */\n      tag_122\n      jump\t// in\n    tag_246:\n        /* \"#utility.yul\":8252:8277   */\n      swap3\n      pop\n        /* \"#utility.yul\":8296:8297   */\n      dup3\n        /* \"#utility.yul\":8286:8321   */\n      tag_247\n      jumpi\n        /* \"#utility.yul\":8301:8319   */\n      tag_248\n      tag_144\n      jump\t// in\n    tag_248:\n        /* \"#utility.yul\":8286:8321   */\n    tag_247:\n        /* \"#utility.yul\":8343:8344   */\n      dup3\n        /* \"#utility.yul\":8340:8341   */\n      dup3\n        /* \"#utility.yul\":8336:8345   */\n      div\n        /* \"#utility.yul\":8331:8345   */\n      swap1\n      pop\n        /* \"#utility.yul\":8166:8351   */\n      swap3\n      swap2\n      pop\n      pop\n      jump\t// out\n        /* \"#utility.yul\":8357:8589   */\n    tag_146:\n        /* \"#utility.yul\":8497:8531   */\n      0x52657175657374206469646e27742072656365697665206d696e696d756d2061\n        /* \"#utility.yul\":8493:8494   */\n      0x00\n        /* \"#utility.yul\":8485:8491   */\n      dup3\n        /* \"#utility.yul\":8481:8495   */\n      add\n        /* \"#utility.yul\":8474:8532   */\n      mstore\n        /* \"#utility.yul\":8566:8581   */\n      0x7070726f76616c73207965742100000000000000000000000000000000000000\n        /* \"#utility.yul\":8561:8563   */\n      0x20\n        /* \"#utility.yul\":8553:8559   */\n      dup3\n        /* \"#utility.yul\":8549:8564   */\n      add\n        /* \"#utility.yul\":8542:8582   */\n      mstore\n        /* \"#utility.yul\":8357:8589   */\n      pop\n      jump\t// out\n        /* \"#utility.yul\":8595:8961   */\n    tag_147:\n        /* \"#utility.yul\":8737:8740   */\n      0x00\n        /* \"#utility.yul\":8758:8825   */\n      tag_251\n        /* \"#utility.yul\":8822:8824   */\n      0x2d\n        /* \"#utility.yul\":8817:8820   */\n      dup4\n        /* \"#utility.yul\":8758:8825   */\n      tag_133\n      jump\t// in\n    tag_251:\n        /* \"#utility.yul\":8751:8825   */\n      swap2\n      pop\n        /* \"#utility.yul\":8834:8927   */\n      tag_252\n        /* \"#utility.yul\":8923:8926   */\n      dup3\n        /* \"#utility.yul\":8834:8927   */\n      tag_146\n      jump\t// in\n    tag_252:\n        /* \"#utility.yul\":8952:8954   */\n      0x40\n        /* \"#utility.yul\":8947:8950   */\n      dup3\n        /* \"#utility.yul\":8943:8955   */\n      add\n        /* \"#utility.yul\":8936:8955   */\n      swap1\n      pop\n        /* \"#utility.yul\":8595:8961   */\n      swap2\n      swap1\n      pop\n      jump\t// out\n        /* \"#utility.yul\":8967:9386   */\n    tag_68:\n        /* \"#utility.yul\":9133:9137   */\n      0x00\n        /* \"#utility.yul\":9171:9173   */\n      0x20\n        /* \"#utility.yul\":9160:9169   */\n      dup3\n        /* \"#utility.yul\":9156:9174   */\n      add\n        /* \"#utility.yul\":9148:9174   */\n      swap1\n      pop\n        /* \"#utility.yul\":9220:9229   */\n      dup2\n        /* \"#utility.yul\":9214:9218   */\n      dup2\n        /* \"#utility.yul\":9210:9230   */\n      sub\n        /* \"#utility.yul\":9206:9207   */\n      0x00\n        /* \"#utility.yul\":9195:9204   */\n      dup4\n        /* \"#utility.yul\":9191:9208   */\n      add\n        /* \"#utility.yul\":9184:9231   */\n      mstore\n        /* \"#utility.yul\":9248:9379   */\n      tag_254\n        /* \"#utility.yul\":9374:9378   */\n      dup2\n        /* \"#utility.yul\":9248:9379   */\n      tag_147\n      jump\t// in\n    tag_254:\n        /* \"#utility.yul\":9240:9379   */\n      swap1\n      pop\n        /* \"#utility.yul\":8967:9386   */\n      swap2\n      swap1\n      pop\n      jump\t// out\n        /* \"#utility.yul\":9392:9570   */\n    tag_148:\n        /* \"#utility.yul\":9532:9562   */\n      0x5265717565737420697320616c726561647920636f6d706c6574652100000000\n        /* \"#utility.yul\":9528:9529   */\n      0x00\n        /* \"#utility.yul\":9520:9526   */\n      dup3\n        /* \"#utility.yul\":9516:9530   */\n      add\n        /* \"#utility.yul\":9509:9563   */\n      mstore\n        /* \"#utility.yul\":9392:9570   */\n      pop\n      jump\t// out\n        /* \"#utility.yul\":9576:9942   */\n    tag_149:\n        /* \"#utility.yul\":9718:9721   */\n      0x00\n        /* \"#utility.yul\":9739:9806   */\n      tag_257\n        /* \"#utility.yul\":9803:9805   */\n      0x1c\n        /* \"#utility.yul\":9798:9801   */\n      dup4\n        /* \"#utility.yul\":9739:9806   */\n      tag_133\n      jump\t// in\n    tag_257:\n        /* \"#utility.yul\":9732:9806   */\n      swap2\n      pop\n        /* \"#utility.yul\":9815:9908   */\n      tag_258\n        /* \"#utility.yul\":9904:9907   */\n      dup3\n        /* \"#utility.yul\":9815:9908   */\n      tag_148\n      jump\t// in\n    tag_258:\n        /* \"#utility.yul\":9933:9935   */\n      0x20\n        /* \"#utility.yul\":9928:9931   */\n      dup3\n        /* \"#utility.yul\":9924:9936   */\n      add\n        /* \"#utility.yul\":9917:9936   */\n      swap1\n      pop\n        /* \"#utility.yul\":9576:9942   */\n      swap2\n      swap1\n      pop\n      jump\t// out\n        /* \"#utility.yul\":9948:10367   */\n    tag_71:\n        /* \"#utility.yul\":10114:10118   */\n      0x00\n        /* \"#utility.yul\":10152:10154   */\n      0x20\n        /* \"#utility.yul\":10141:10150   */\n      dup3\n        /* \"#utility.yul\":10137:10155   */\n      add\n        /* \"#utility.yul\":10129:10155   */\n      swap1\n      pop\n        /* \"#utility.yul\":10201:10210   */\n      dup2\n        /* \"#utility.yul\":10195:10199   */\n      dup2\n        /* \"#utility.yul\":10191:10211   */\n      sub\n        /* \"#utility.yul\":10187:10188   */\n      0x00\n        /* \"#utility.yul\":10176:10185   */\n      dup4\n        /* \"#utility.yul\":10172:10189   */\n      add\n        /* \"#utility.yul\":10165:10212   */\n      mstore\n        /* \"#utility.yul\":10229:10360   */\n      tag_260\n        /* \"#utility.yul\":10355:10359   */\n      dup2\n        /* \"#utility.yul\":10229:10360   */\n      tag_149\n      jump\t// in\n    tag_260:\n        /* \"#utility.yul\":10221:10360   */\n      swap1\n      pop\n        /* \"#utility.yul\":9948:10367   */\n      swap2\n      swap1\n      pop\n      jump\t// out\n        /* \"#utility.yul\":10373:10554   */\n    tag_150:\n        /* \"#utility.yul\":10513:10546   */\n      0x416374696f6e207265737472696374656420746f20617070726f766572732100\n        /* \"#utility.yul\":10509:10510   */\n      0x00\n        /* \"#utility.yul\":10501:10507   */\n      dup3\n        /* \"#utility.yul\":10497:10511   */\n      add\n        /* \"#utility.yul\":10490:10547   */\n      mstore\n        /* \"#utility.yul\":10373:10554   */\n      pop\n      jump\t// out\n        /* \"#utility.yul\":10560:10926   */\n    tag_151:\n        /* \"#utility.yul\":10702:10705   */\n      0x00\n        /* \"#utility.yul\":10723:10790   */\n      tag_263\n        /* \"#utility.yul\":10787:10789   */\n      0x1f\n        /* \"#utility.yul\":10782:10785   */\n      dup4\n        /* \"#utility.yul\":10723:10790   */\n      tag_133\n      jump\t// in\n    tag_263:\n        /* \"#utility.yul\":10716:10790   */\n      swap2\n      pop\n        /* \"#utility.yul\":10799:10892   */\n      tag_264\n        /* \"#utility.yul\":10888:10891   */\n      dup3\n        /* \"#utility.yul\":10799:10892   */\n      tag_150\n      jump\t// in\n    tag_264:\n        /* \"#utility.yul\":10917:10919   */\n      0x20\n        /* \"#utility.yul\":10912:10915   */\n      dup3\n        /* \"#utility.yul\":10908:10920   */\n      add\n        /* \"#utility.yul\":10901:10920   */\n      swap1\n      pop\n        /* \"#utility.yul\":10560:10926   */\n      swap2\n      swap1\n      pop\n      jump\t// out\n        /* \"#utility.yul\":10932:11351   */\n    tag_80:\n        /* \"#utility.yul\":11098:11102   */\n      0x00\n        /* \"#utility.yul\":11136:11138   */\n      0x20\n        /* \"#utility.yul\":11125:11134   */\n      dup3\n        /* \"#utility.yul\":11121:11139   */\n      add\n        /* \"#utility.yul\":11113:11139   */\n      swap1\n      pop\n        /* \"#utility.yul\":11185:11194   */\n      dup2\n        /* \"#utility.yul\":11179:11183   */\n      dup2\n        /* \"#utility.yul\":11175:11195   */\n      sub\n        /* \"#utility.yul\":11171:11172   */\n      0x00\n        /* \"#utility.yul\":11160:11169   */\n      dup4\n        /* \"#utility.yul\":11156:11173   */\n      add\n        /* \"#utility.yul\":11149:11196   */\n      mstore\n        /* \"#utility.yul\":11213:11344   */\n      tag_266\n        /* \"#utility.yul\":11339:11343   */\n      dup2\n        /* \"#utility.yul\":11213:11344   */\n      tag_151\n      jump\t// in\n    tag_266:\n        /* \"#utility.yul\":11205:11344   */\n      swap1\n      pop\n        /* \"#utility.yul\":10932:11351   */\n      swap2\n      swap1\n      pop\n      jump\t// out\n        /* \"#utility.yul\":11357:11578   */\n    tag_152:\n        /* \"#utility.yul\":11497:11531   */\n      0x596f7520616c726561647920617070726f766564207468697320726571756573\n        /* \"#utility.yul\":11493:11494   */\n      0x00\n        /* \"#utility.yul\":11485:11491   */\n      dup3\n        /* \"#utility.yul\":11481:11495   */\n      add\n        /* \"#utility.yul\":11474:11532   */\n      mstore\n        /* \"#utility.yul\":11566:11570   */\n      0x742e000000000000000000000000000000000000000000000000000000000000\n        /* \"#utility.yul\":11561:11563   */\n      0x20\n        /* \"#utility.yul\":11553:11559   */\n      dup3\n        /* \"#utility.yul\":11549:11564   */\n      add\n        /* \"#utility.yul\":11542:11571   */\n      mstore\n        /* \"#utility.yul\":11357:11578   */\n      pop\n      jump\t// out\n        /* \"#utility.yul\":11584:11950   */\n    tag_153:\n        /* \"#utility.yul\":11726:11729   */\n      0x00\n        /* \"#utility.yul\":11747:11814   */\n      tag_269\n        /* \"#utility.yul\":11811:11813   */\n      0x22\n        /* \"#utility.yul\":11806:11809   */\n      dup4\n        /* \"#utility.yul\":11747:11814   */\n      tag_133\n      jump\t// in\n    tag_269:\n        /* \"#utility.yul\":11740:11814   */\n      swap2\n      pop\n        /* \"#utility.yul\":11823:11916   */\n      tag_270\n        /* \"#utility.yul\":11912:11915   */\n      dup3\n        /* \"#utility.yul\":11823:11916   */\n      tag_152\n      jump\t// in\n    tag_270:\n        /* \"#utility.yul\":11941:11943   */\n      0x40\n        /* \"#utility.yul\":11936:11939   */\n      dup3\n        /* \"#utility.yul\":11932:11944   */\n      add\n        /* \"#utility.yul\":11925:11944   */\n      swap1\n      pop\n        /* \"#utility.yul\":11584:11950   */\n      swap2\n      swap1\n      pop\n      jump\t// out\n        /* \"#utility.yul\":11956:12375   */\n    tag_83:\n        /* \"#utility.yul\":12122:12126   */\n      0x00\n        /* \"#utility.yul\":12160:12162   */\n      0x20\n        /* \"#utility.yul\":12149:12158   */\n      dup3\n        /* \"#utility.yul\":12145:12163   */\n      add\n        /* \"#utility.yul\":12137:12163   */\n      swap1\n      pop\n        /* \"#utility.yul\":12209:12218   */\n      dup2\n        /* \"#utility.yul\":12203:12207   */\n      dup2\n        /* \"#utility.yul\":12199:12219   */\n      sub\n        /* \"#utility.yul\":12195:12196   */\n      0x00\n        /* \"#utility.yul\":12184:12193   */\n      dup4\n        /* \"#utility.yul\":12180:12197   */\n      add\n        /* \"#utility.yul\":12173:12220   */\n      mstore\n        /* \"#utility.yul\":12237:12368   */\n      tag_272\n        /* \"#utility.yul\":12363:12367   */\n      dup2\n        /* \"#utility.yul\":12237:12368   */\n      tag_153\n      jump\t// in\n    tag_272:\n        /* \"#utility.yul\":12229:12368   */\n      swap1\n      pop\n        /* \"#utility.yul\":11956:12375   */\n      swap2\n      swap1\n      pop\n      jump\t// out\n        /* \"#utility.yul\":12381:12614   */\n    tag_85:\n        /* \"#utility.yul\":12420:12423   */\n      0x00\n        /* \"#utility.yul\":12443:12467   */\n      tag_274\n        /* \"#utility.yul\":12461:12466   */\n      dup3\n        /* \"#utility.yul\":12443:12467   */\n      tag_122\n      jump\t// in\n    tag_274:\n        /* \"#utility.yul\":12434:12467   */\n      swap2\n      pop\n        /* \"#utility.yul\":12489:12555   */\n      0xffffffffffffffffffffffffffffffffffffffffffffffffffffffffffffffff\n        /* \"#utility.yul\":12482:12487   */\n      dup3\n        /* \"#utility.yul\":12479:12556   */\n      eq\n        /* \"#utility.yul\":12476:12579   */\n      iszero\n      tag_275\n      jumpi\n        /* \"#utility.yul\":12559:12577   */\n      tag_276\n      tag_145\n      jump\t// in\n    tag_276:\n        /* \"#utility.yul\":12476:12579   */\n    tag_275:\n        /* \"#utility.yul\":12606:12607   */\n      0x01\n        /* \"#utility.yul\":12599:12604   */\n      dup3\n        /* \"#utility.yul\":12595:12608   */\n      add\n        /* \"#utility.yul\":12588:12608   */\n      swap1\n      pop\n        /* \"#utility.yul\":12381:12614   */\n      swap2\n      swap1\n      pop\n      jump\t// out\n        /* \"#utility.yul\":12620:12800   */\n    tag_154:\n        /* \"#utility.yul\":12668:12745   */\n      0x4e487b7100000000000000000000000000000000000000000000000000000000\n        /* \"#utility.yul\":12665:12666   */\n      0x00\n        /* \"#utility.yul\":12658:12746   */\n      mstore\n        /* \"#utility.yul\":12765:12769   */\n      0x22\n        /* \"#utility.yul\":12762:12763   */\n      0x04\n        /* \"#utility.yul\":12755:12770   */\n      mstore\n        /* \"#utility.yul\":12789:12793   */\n      0x24\n        /* \"#utility.yul\":12786:12787   */\n      0x00\n        /* \"#utility.yul\":12779:12794   */\n      revert\n        /* \"#utility.yul\":12806:13126   */\n    tag_89:\n        /* \"#utility.yul\":12850:12856   */\n      0x00\n        /* \"#utility.yul\":12887:12888   */\n      0x02\n        /* \"#utility.yul\":12881:12885   */\n      dup3\n        /* \"#utility.yul\":12877:12889   */\n      div\n        /* \"#utility.yul\":12867:12889   */\n      swap1\n      pop\n        /* \"#utility.yul\":12934:12935   */\n      0x01\n        /* \"#utility.yul\":12928:12932   */\n      dup3\n        /* \"#utility.yul\":12924:12936   */\n      and\n        /* \"#utility.yul\":12955:12973   */\n      dup1\n        /* \"#utility.yul\":12945:13026   */\n      tag_279\n      jumpi\n        /* \"#utility.yul\":13011:13015   */\n      0x7f\n        /* \"#utility.yul\":13003:13009   */\n      dup3\n        /* \"#utility.yul\":12999:13016   */\n      and\n        /* \"#utility.yul\":12989:13016   */\n      swap2\n      pop\n        /* \"#utility.yul\":12945:13026   */\n    tag_279:\n        /* \"#utility.yul\":13073:13075   */\n      0x20\n        /* \"#utility.yul\":13065:13071   */\n      dup3\n        /* \"#utility.yul\":13062:13076   */\n      lt\n        /* \"#utility.yul\":13042:13060   */\n      dup2\n        /* \"#utility.yul\":13039:13077   */\n      eq\n        /* \"#utility.yul\":13036:13120   */\n      iszero\n      tag_280\n      jumpi\n        /* \"#utility.yul\":13092:13110   */\n      tag_281\n      tag_154\n      jump\t// in\n    tag_281:\n        /* \"#utility.yul\":13036:13120   */\n    tag_280:\n        /* \"#utility.yul\":12857:13126   */\n      pop\n        /* \"#utility.yul\":12806:13126   */\n      swap2\n      swap1\n      pop\n      jump\t// out\n        /* \"#utility.yul\":13132:13379   */\n    tag_155:\n        /* \"#utility.yul\":13272:13306   */\n      0x56616c7565206d7573742062652067726561746572207468616e206f72206571\n        /* \"#utility.yul\":13268:13269   */\n      0x00\n        /* \"#utility.yul\":13260:13266   */\n      dup3\n        /* \"#utility.yul\":13256:13270   */\n      add\n        /* \"#utility.yul\":13249:13307   */\n      mstore\n        /* \"#utility.yul\":13341:13371   */\n      0x75616c20746f206d696e696d756d20636f6e747269627574696f6e2e00000000\n        /* \"#utility.yul\":13336:13338   */\n      0x20\n        /* \"#utility.yul\":13328:13334   */\n      dup3\n        /* \"#utility.yul\":13324:13339   */\n      add\n        /* \"#utility.yul\":13317:13372   */\n      mstore\n        /* \"#utility.yul\":13132:13379   */\n      pop\n      jump\t// out\n        /* \"#utility.yul\":13385:13751   */\n    tag_156:\n        /* \"#utility.yul\":13527:13530   */\n      0x00\n        /* \"#utility.yul\":13548:13615   */\n      tag_284\n        /* \"#utility.yul\":13612:13614   */\n      0x3c\n        /* \"#utility.yul\":13607:13610   */\n      dup4\n        /* \"#utility.yul\":13548:13615   */\n      tag_133\n      jump\t// in\n    tag_284:\n        /* \"#utility.yul\":13541:13615   */\n      swap2\n      pop\n        /* \"#utility.yul\":13624:13717   */\n      tag_285\n        /* \"#utility.yul\":13713:13716   */\n      dup3\n        /* \"#utility.yul\":13624:13717   */\n      tag_155\n      jump\t// in\n    tag_285:\n        /* \"#utility.yul\":13742:13744   */\n      0x40\n        /* \"#utility.yul\":13737:13740   */\n      dup3\n        /* \"#utility.yul\":13733:13745   */\n      add\n        /* \"#utility.yul\":13726:13745   */\n      swap1\n      pop\n        /* \"#utility.yul\":13385:13751   */\n      swap2\n      swap1\n      pop\n      jump\t// out\n        /* \"#utility.yul\":13757:14176   */\n    tag_104:\n        /* \"#utility.yul\":13923:13927   */\n      0x00\n        /* \"#utility.yul\":13961:13963   */\n      0x20\n        /* \"#utility.yul\":13950:13959   */\n      dup3\n        /* \"#utility.yul\":13946:13964   */\n      add\n        /* \"#utility.yul\":13938:13964   */\n      swap1\n      pop\n        /* \"#utility.yul\":14010:14019   */\n      dup2\n        /* \"#utility.yul\":14004:14008   */\n      dup2\n        /* \"#utility.yul\":14000:14020   */\n      sub\n        /* \"#utility.yul\":13996:13997   */\n      0x00\n        /* \"#utility.yul\":13985:13994   */\n      dup4\n        /* \"#utility.yul\":13981:13998   */\n      add\n        /* \"#utility.yul\":13974:14021   */\n      mstore\n        /* \"#utility.yul\":14038:14169   */\n      tag_287\n        /* \"#utility.yul\":14164:14168   */\n      dup2\n        /* \"#utility.yul\":14038:14169   */\n      tag_156\n      jump\t// in\n    tag_287:\n        /* \"#utility.yul\":14030:14169   */\n      swap1\n      pop\n        /* \"#utility.yul\":13757:14176   */\n      swap2\n      swap1\n      pop\n      jump\t// out\n        /* \"#utility.yul\":14182:14410   */\n    tag_157:\n        /* \"#utility.yul\":14322:14356   */\n      0x596f7520616c726561647920636f6e747269627574656420746f207468697320\n        /* \"#utility.yul\":14318:14319   */\n      0x00\n        /* \"#utility.yul\":14310:14316   */\n      dup3\n        /* \"#utility.yul\":14306:14320   */\n      add\n        /* \"#utility.yul\":14299:14357   */\n      mstore\n        /* \"#utility.yul\":14391:14402   */\n      0x63616d706169676e2e0000000000000000000000000000000000000000000000\n        /* \"#utility.yul\":14386:14388   */\n      0x20\n        /* \"#utility.yul\":14378:14384   */\n      dup3\n        /* \"#utility.yul\":14374:14389   */\n      add\n        /* \"#utility.yul\":14367:14403   */\n      mstore\n        /* \"#utility.yul\":14182:14410   */\n      pop\n      jump\t// out\n        /* \"#utility.yul\":14416:14782   */\n    tag_158:\n        /* \"#utility.yul\":14558:14561   */\n      0x00\n        /* \"#utility.yul\":14579:14646   */\n      tag_290\n        /* \"#utility.yul\":14643:14645   */\n      0x29\n        /* \"#utility.yul\":14638:14641   */\n      dup4\n        /* \"#utility.yul\":14579:14646   */\n      tag_133\n      jump\t// in\n    tag_290:\n        /* \"#utility.yul\":14572:14646   */\n      swap2\n      pop\n        /* \"#utility.yul\":14655:14748   */\n      tag_291\n        /* \"#utility.yul\":14744:14747   */\n      dup3\n        /* \"#utility.yul\":14655:14748   */\n      tag_157\n      jump\t// in\n    tag_291:\n        /* \"#utility.yul\":14773:14775   */\n      0x40\n        /* \"#utility.yul\":14768:14771   */\n      dup3\n        /* \"#utility.yul\":14764:14776   */\n      add\n        /* \"#utility.yul\":14757:14776   */\n      swap1\n      pop\n        /* \"#utility.yul\":14416:14782   */\n      swap2\n      swap1\n      pop\n      jump\t// out\n        /* \"#utility.yul\":14788:15207   */\n    tag_107:\n        /* \"#utility.yul\":14954:14958   */\n      0x00\n        /* \"#utility.yul\":14992:14994   */\n      0x20\n        /* \"#utility.yul\":14981:14990   */\n      dup3\n        /* \"#utility.yul\":14977:14995   */\n      add\n        /* \"#utility.yul\":14969:14995   */\n      swap1\n      pop\n        /* \"#utility.yul\":15041:15050   */\n      dup2\n        /* \"#utility.yul\":15035:15039   */\n      dup2\n        /* \"#utility.yul\":15031:15051   */\n      sub\n        /* \"#utility.yul\":15027:15028   */\n      0x00\n        /* \"#utility.yul\":15016:15025   */\n      dup4\n        /* \"#utility.yul\":15012:15029   */\n      add\n        /* \"#utility.yul\":15005:15052   */\n      mstore\n        /* \"#utility.yul\":15069:15200   */\n      tag_293\n        /* \"#utility.yul\":15195:15199   */\n      dup2\n        /* \"#utility.yul\":15069:15200   */\n      tag_158\n      jump\t// in\n    tag_293:\n        /* \"#utility.yul\":15061:15200   */\n      swap1\n      pop\n        /* \"#utility.yul\":14788:15207   */\n      swap2\n      swap1\n      pop\n      jump\t// out\n\n    auxdata: 0xa2646970667358221220572807a6f765ed32fc8232c54ab7af00c64755ec05d324a6da8298b04336c7ce64736f6c63430008090033\n}\n","bytecode":{"linkReferences":{},"object":"60806040523480156200001157600080fd5b506040516200141d3803806200141d83398181016040528101906200003791906200012b565b806000806101000a81548173ffffffffffffffffffffffffffffffffffffffff021916908373ffffffffffffffffffffffffffffffffffffffff16021790555081600181905550505062000172565b600080fd5b6000819050919050565b620000a0816200008b565b8114620000ac57600080fd5b50565b600081519050620000c08162000095565b92915050565b600073ffffffffffffffffffffffffffffffffffffffff82169050919050565b6000620000f382620000c6565b9050919050565b6200010581620000e6565b81146200011157600080fd5b50565b6000815190506200012581620000fa565b92915050565b6000806040838503121562000145576200014462000086565b5b60006200015585828601620000af565b9250506020620001688582860162000114565b9150509250929050565b61129b80620001826000396000f3fe6080604052600436106100865760003560e01c806381d12c581161005957806381d12c581461014557806382fde093146101865780638a9cfd55146101b1578063937e09b1146101da578063d7bb99ba1461020557610086565b8063034410061461008b5780630a144391146100b4578063138b6ec8146100f1578063481c6a751461011a575b600080fd5b34801561009757600080fd5b506100b260048036038101906100ad9190610a3d565b61020f565b005b3480156100c057600080fd5b506100db60048036038101906100d69190610ac8565b6103f9565b6040516100e89190610b10565b60405180910390f35b3480156100fd57600080fd5b5061011860048036038101906101139190610a3d565b610419565b005b34801561012657600080fd5b5061012f6105d2565b60405161013c9190610b3a565b60405180910390f35b34801561015157600080fd5b5061016c60048036038101906101679190610a3d565b6105f6565b60405161017d959493929190610bfd565b60405180910390f35b34801561019257600080fd5b5061019b6106f1565b6040516101a89190610c57565b60405180910390f35b3480156101bd57600080fd5b506101d860048036038101906101d39190610cd7565b6106f7565b005b3480156101e657600080fd5b506101ef610810565b6040516101fc9190610c57565b60405180910390f35b61020d610816565b005b60008054906101000a900473ffffffffffffffffffffffffffffffffffffffff1673ffffffffffffffffffffffffffffffffffffffff163373ffffffffffffffffffffffffffffffffffffffff161461029d576040517f08c379a000000000000000000000000000000000000000000000000000000000815260040161029490610dbd565b60405180910390fd5b6000600482815481106102b3576102b2610ddd565b5b9060005260206000209060050201905060026003546102d29190610e6a565b816003015411610317576040517f08c379a000000000000000000000000000000000000000000000000000000000815260040161030e90610f0d565b60405180910390fd5b8060020160149054906101000a900460ff1615610369576040517f08c379a000000000000000000000000000000000000000000000000000000000815260040161036090610f79565b60405180910390fd5b8060020160009054906101000a900473ffffffffffffffffffffffffffffffffffffffff1673ffffffffffffffffffffffffffffffffffffffff166108fc82600101549081150290604051600060405180830381858888f193505050501580156103d7573d6000803e3d6000fd5b5060018160020160146101000a81548160ff0219169083151502179055505050565b60026020528060005260406000206000915054906101000a900460ff1681565b60006004828154811061042f5761042e610ddd565b5b90600052602060002090600502019050600260003373ffffffffffffffffffffffffffffffffffffffff1673ffffffffffffffffffffffffffffffffffffffff16815260200190815260200160002060009054906101000a900460ff166104cb576040517f08c379a00000000000000000000000000000000000000000000000000000000081526004016104c290610fe5565b60405180910390fd5b8060040160003373ffffffffffffffffffffffffffffffffffffffff1673ffffffffffffffffffffffffffffffffffffffff16815260200190815260200160002060009054906101000a900460ff161561055a576040517f08c379a000000000000000000000000000000000000000000000000000000000815260040161055190611077565b60405180910390fd5b60018160040160003373ffffffffffffffffffffffffffffffffffffffff1673ffffffffffffffffffffffffffffffffffffffff16815260200190815260200160002060006101000a81548160ff0219169083151502179055508060030160008154809291906105c990611097565b91905055505050565b60008054906101000a900473ffffffffffffffffffffffffffffffffffffffff1681565b6004818154811061060657600080fd5b90600052602060002090600502016000915090508060000180546106299061110f565b80601f01602080910402602001604051908101604052809291908181526020018280546106559061110f565b80156106a25780601f10610677576101008083540402835291602001916106a2565b820191906000526020600020905b81548152906001019060200180831161068557829003601f168201915b5050505050908060010154908060020160009054906101000a900473ffffffffffffffffffffffffffffffffffffffff16908060020160149054906101000a900460ff16908060030154905085565b60035481565b60008054906101000a900473ffffffffffffffffffffffffffffffffffffffff1673ffffffffffffffffffffffffffffffffffffffff163373ffffffffffffffffffffffffffffffffffffffff1614610785576040517f08c379a000000000000000000000000000000000000000000000000000000000815260040161077c90610dbd565b60405180910390fd5b60006004600181600181540180825580915050039060005260206000209060050201905084848260000191906107bc92919061095a565b50828160010181905550818160020160006101000a81548173ffffffffffffffffffffffffffffffffffffffff021916908373ffffffffffffffffffffffffffffffffffffffff1602179055505050505050565b60015481565b60015434101561085b576040517f08c379a0000000000000000000000000000000000000000000000000000000008152600401610852906111b3565b60405180910390fd5b600260003373ffffffffffffffffffffffffffffffffffffffff1673ffffffffffffffffffffffffffffffffffffffff16815260200190815260200160002060009054906101000a900460ff16156108e8576040517f08c379a00000000000000000000000000000000000000000000000000000000081526004016108df90611245565b60405180910390fd5b6001600260003373ffffffffffffffffffffffffffffffffffffffff1673ffffffffffffffffffffffffffffffffffffffff16815260200190815260200160002060006101000a81548160ff0219169083151502179055506003600081548092919061095390611097565b9190505550565b8280546109669061110f565b90600052602060002090601f01602090048101928261098857600085556109cf565b82601f106109a157803560ff19168380011785556109cf565b828001600101855582156109cf579182015b828111156109ce5782358255916020019190600101906109b3565b5b5090506109dc91906109e0565b5090565b5b808211156109f95760008160009055506001016109e1565b5090565b600080fd5b600080fd5b6000819050919050565b610a1a81610a07565b8114610a2557600080fd5b50565b600081359050610a3781610a11565b92915050565b600060208284031215610a5357610a526109fd565b5b6000610a6184828501610a28565b91505092915050565b600073ffffffffffffffffffffffffffffffffffffffff82169050919050565b6000610a9582610a6a565b9050919050565b610aa581610a8a565b8114610ab057600080fd5b50565b600081359050610ac281610a9c565b92915050565b600060208284031215610ade57610add6109fd565b5b6000610aec84828501610ab3565b91505092915050565b60008115159050919050565b610b0a81610af5565b82525050565b6000602082019050610b256000830184610b01565b92915050565b610b3481610a8a565b82525050565b6000602082019050610b4f6000830184610b2b565b92915050565b600081519050919050565b600082825260208201905092915050565b60005b83811015610b8f578082015181840152602081019050610b74565b83811115610b9e576000848401525b50505050565b6000601f19601f8301169050919050565b6000610bc082610b55565b610bca8185610b60565b9350610bda818560208601610b71565b610be381610ba4565b840191505092915050565b610bf781610a07565b82525050565b600060a0820190508181036000830152610c178188610bb5565b9050610c266020830187610bee565b610c336040830186610b2b565b610c406060830185610b01565b610c4d6080830184610bee565b9695505050505050565b6000602082019050610c6c6000830184610bee565b92915050565b600080fd5b600080fd5b600080fd5b60008083601f840112610c9757610c96610c72565b5b8235905067ffffffffffffffff811115610cb457610cb3610c77565b5b602083019150836001820283011115610cd057610ccf610c7c565b5b9250929050565b60008060008060608587031215610cf157610cf06109fd565b5b600085013567ffffffffffffffff811115610d0f57610d0e610a02565b5b610d1b87828801610c81565b94509450506020610d2e87828801610a28565b9250506040610d3f87828801610ab3565b91505092959194509250565b7f416374696f6e207265737472696374656420746f20746865206d616e6167657260008201527f2100000000000000000000000000000000000000000000000000000000000000602082015250565b6000610da7602183610b60565b9150610db282610d4b565b604082019050919050565b60006020820190508181036000830152610dd681610d9a565b9050919050565b7f4e487b7100000000000000000000000000000000000000000000000000000000600052603260045260246000fd5b7f4e487b7100000000000000000000000000000000000000000000000000000000600052601260045260246000fd5b7f4e487b7100000000000000000000000000000000000000000000000000000000600052601160045260246000fd5b6000610e7582610a07565b9150610e8083610a07565b925082610e9057610e8f610e0c565b5b828204905092915050565b7f52657175657374206469646e27742072656365697665206d696e696d756d206160008201527f7070726f76616c73207965742100000000000000000000000000000000000000602082015250565b6000610ef7602d83610b60565b9150610f0282610e9b565b604082019050919050565b60006020820190508181036000830152610f2681610eea565b9050919050565b7f5265717565737420697320616c726561647920636f6d706c6574652100000000600082015250565b6000610f63601c83610b60565b9150610f6e82610f2d565b602082019050919050565b60006020820190508181036000830152610f9281610f56565b9050919050565b7f416374696f6e207265737472696374656420746f20617070726f766572732100600082015250565b6000610fcf601f83610b60565b9150610fda82610f99565b602082019050919050565b60006020820190508181036000830152610ffe81610fc2565b9050919050565b7f596f7520616c726561647920617070726f76656420746869732072657175657360008201527f742e000000000000000000000000000000000000000000000000000000000000602082015250565b6000611061602283610b60565b915061106c82611005565b604082019050919050565b6000602082019050818103600083015261109081611054565b9050919050565b60006110a282610a07565b91507fffffffffffffffffffffffffffffffffffffffffffffffffffffffffffffffff8214156110d5576110d4610e3b565b5b600182019050919050565b7f4e487b7100000000000000000000000000000000000000000000000000000000600052602260045260246000fd5b6000600282049050600182168061112757607f821691505b6020821081141561113b5761113a6110e0565b5b50919050565b7f56616c7565206d7573742062652067726561746572207468616e206f7220657160008201527f75616c20746f206d696e696d756d20636f6e747269627574696f6e2e00000000602082015250565b600061119d603c83610b60565b91506111a882611141565b604082019050919050565b600060208201905081810360008301526111cc81611190565b9050919050565b7f596f7520616c726561647920636f6e747269627574656420746f20746869732060008201527f63616d706169676e2e0000000000000000000000000000000000000000000000602082015250565b600061122f602983610b60565b915061123a826111d3565b604082019050919050565b6000602082019050818103600083015261125e81611222565b905091905056fea2646970667358221220572807a6f765ed32fc8232c54ab7af00c64755ec05d324a6da8298b04336c7ce64736f6c63430008090033","opcodes":"PUSH1 0x80 PUSH1 0x40 MSTORE CALLVALUE DUP1 ISZERO PUSH3 0x11 JUMPI PUSH1 0x0 DUP1 REVERT JUMPDEST POP PUSH1 0x40 MLOAD PUSH3 0x141D CODESIZE SUB DUP1 PUSH3 0x141D DUP4 CODECOPY DUP2 DUP2 ADD PUSH1 0x40 MSTORE DUP2 ADD SWAP1 PUSH3 0x37 SWAP2 SWAP1 PUSH3 0x12B JUMP JUMPDEST DUP1 PUSH1 0x0 DUP1 PUSH2 0x100 EXP DUP2 SLOAD DUP2 PUSH20 0xFFFFFFFFFFFFFFFFFFFFFFFFFFFFFFFFFFFFFFFF MUL NOT AND SWAP1 DUP4 PUSH20 0xFFFFFFFFFFFFFFFFFFFFFFFFFFFFFFFFFFFFFFFF AND MUL OR SWAP1 SSTORE POP DUP2 PUSH1 0x1 DUP2 SWAP1 SSTORE POP POP POP PUSH3 0x172 JUMP JUMPDEST PUSH1 0x0 DUP1 REVERT JUMPDEST PUSH1 0x0 DUP2 SWAP1 POP SWAP2 SWAP1 POP JUMP JUMPDEST PUSH3 0xA0 DUP2 PUSH3 0x8B JUMP JUMPDEST DUP2 EQ PUSH3 0xAC JUMPI PUSH1 0x0 DUP1 REVERT JUMPDEST POP JUMP JUMPDEST PUSH1 0x0 DUP2 MLOAD SWAP1 POP PUSH3 0xC0 DUP2 PUSH3 0x95 JUMP JUMPDEST SWAP3 SWAP2 POP POP JUMP JUMPDEST PUSH1 0x0 PUSH20 0xFFFFFFFFFFFFFFFFFFFFFFFFFFFFFFFFFFFFFFFF DUP3 AND SWAP1 POP SWAP2 SWAP1 POP JUMP JUMPDEST PUSH1 0x0 PUSH3 0xF3 DUP3 PUSH3 0xC6 JUMP JUMPDEST SWAP1 POP SWAP2 SWAP1 POP JUMP JUMPDEST PUSH3 0x105 DUP2 PUSH3 0xE6 JUMP JUMPDEST DUP2 EQ PUSH3 0x111 JUMPI PUSH1 0x0 DUP1 REVERT JUMPDEST POP JUMP JUMPDEST PUSH1 0x0 DUP2 MLOAD SWAP1 POP PUSH3 0x125 DUP2 PUSH3 0xFA JUMP JUMPDEST SWAP3 SWAP2 POP POP JUMP JUMPDEST PUSH1 0x0 DUP1 PUSH1 0x40 DUP4 DUP6 SUB SLT ISZERO PUSH3 0x145 JUMPI PUSH3 0x144 PUSH3 0x86 JUMP JUMPDEST JUMPDEST PUSH1 0x0 PUSH3 0x155 DUP6 DUP3 DUP7 ADD PUSH3 0xAF JUMP JUMPDEST SWAP3 POP POP PUSH1 0x20 PUSH3 0x168 DUP6 DUP3 DUP7 ADD PUSH3 0x114 JUMP JUMPDEST SWAP2 POP POP SWAP3 POP SWAP3 SWAP1 POP JUMP JUMPDEST PUSH2 0x129B DUP1 PUSH3 0x182 PUSH1 0x0 CODECOPY PUSH1 0x0 RETURN INVALID PUSH1 0x80 PUSH1 0x40 MSTORE PUSH1 0x4 CALLDATASIZE LT PUSH2 0x86 JUMPI PUSH1 0x0 CALLDATALOAD PUSH1 0xE0 SHR DUP1 PUSH4 0x81D12C58 GT PUSH2 0x59 JUMPI DUP1 PUSH4 0x81D12C58 EQ PUSH2 0x145 JUMPI DUP1 PUSH4 0x82FDE093 EQ PUSH2 0x186 JUMPI DUP1 PUSH4 0x8A9CFD55 EQ PUSH2 0x1B1 JUMPI DUP1 PUSH4 0x937E09B1 EQ PUSH2 0x1DA JUMPI DUP1 PUSH4 0xD7BB99BA EQ PUSH2 0x205 JUMPI PUSH2 0x86 JUMP JUMPDEST DUP1 PUSH4 0x3441006 EQ PUSH2 0x8B JUMPI DUP1 PUSH4 0xA144391 EQ PUSH2 0xB4 JUMPI DUP1 PUSH4 0x138B6EC8 EQ PUSH2 0xF1 JUMPI DUP1 PUSH4 0x481C6A75 EQ PUSH2 0x11A JUMPI JUMPDEST PUSH1 0x0 DUP1 REVERT JUMPDEST CALLVALUE DUP1 ISZERO PUSH2 0x97 JUMPI PUSH1 0x0 DUP1 REVERT JUMPDEST POP PUSH2 0xB2 PUSH1 0x4 DUP1 CALLDATASIZE SUB DUP2 ADD SWAP1 PUSH2 0xAD SWAP2 SWAP1 PUSH2 0xA3D JUMP JUMPDEST PUSH2 0x20F JUMP JUMPDEST STOP JUMPDEST CALLVALUE DUP1 ISZERO PUSH2 0xC0 JUMPI PUSH1 0x0 DUP1 REVERT JUMPDEST POP PUSH2 0xDB PUSH1 0x4 DUP1 CALLDATASIZE SUB DUP2 ADD SWAP1 PUSH2 0xD6 SWAP2 SWAP1 PUSH2 0xAC8 JUMP JUMPDEST PUSH2 0x3F9 JUMP JUMPDEST PUSH1 0x40 MLOAD PUSH2 0xE8 SWAP2 SWAP1 PUSH2 0xB10 JUMP JUMPDEST PUSH1 0x40 MLOAD DUP1 SWAP2 SUB SWAP1 RETURN JUMPDEST CALLVALUE DUP1 ISZERO PUSH2 0xFD JUMPI PUSH1 0x0 DUP1 REVERT JUMPDEST POP PUSH2 0x118 PUSH1 0x4 DUP1 CALLDATASIZE SUB DUP2 ADD SWAP1 PUSH2 0x113 SWAP2 SWAP1 PUSH2 0xA3D JUMP JUMPDEST PUSH2 0x419 JUMP JUMPDEST STOP JUMPDEST CALLVALUE DUP1 ISZERO PUSH2 0x126 JUMPI PUSH1 0x0 DUP1 REVERT JUMPDEST POP PUSH2 0x12F PUSH2 0x5D2 JUMP JUMPDEST PUSH1 0x40 MLOAD PUSH2 0x13C SWAP2 SWAP1 PUSH2 0xB3A JUMP JUMPDEST PUSH1 0x40 MLOAD DUP1 SWAP2 SUB SWAP1 RETURN JUMPDEST CALLVALUE DUP1 ISZERO PUSH2 0x151 JUMPI PUSH1 0x0 DUP1 REVERT JUMPDEST POP PUSH2 0x16C PUSH1 0x4 DUP1 CALLDATASIZE SUB DUP2 ADD SWAP1 PUSH2 0x167 SWAP2 SWAP1 PUSH2 0xA3D JUMP JUMPDEST PUSH2 0x5F6 JUMP JUMPDEST PUSH1 0x40 MLOAD PUSH2 0x17D SWAP6 SWAP5 SWAP4 SWAP3 SWAP2 SWAP1 PUSH2 0xBFD JUMP JUMPDEST PUSH1 0x40 MLOAD DUP1 SWAP2 SUB SWAP1 RETURN JUMPDEST CALLVALUE DUP1 ISZERO PUSH2 0x192 JUMPI PUSH1 0x0 DUP1 REVERT JUMPDEST POP PUSH2 0x19B PUSH2 0x6F1 JUMP JUMPDEST PUSH1 0x40 MLOAD PUSH2 0x1A8 SWAP2 SWAP1 PUSH2 0xC57 JUMP JUMPDEST PUSH1 0x40 MLOAD DUP1 SWAP2 SUB SWAP1 RETURN JUMPDEST CALLVALUE DUP1 ISZERO PUSH2 0x1BD JUMPI PUSH1 0x0 DUP1 REVERT JUMPDEST POP PUSH2 0x1D8 PUSH1 0x4 DUP1 CALLDATASIZE SUB DUP2 ADD SWAP1 PUSH2 0x1D3 SWAP2 SWAP1 PUSH2 0xCD7 JUMP JUMPDEST PUSH2 0x6F7 JUMP JUMPDEST STOP JUMPDEST CALLVALUE DUP1 ISZERO PUSH2 0x1E6 JUMPI PUSH1 0x0 DUP1 REVERT JUMPDEST POP PUSH2 0x1EF PUSH2 0x810 JUMP JUMPDEST PUSH1 0x40 MLOAD PUSH2 0x1FC SWAP2 SWAP1 PUSH2 0xC57 JUMP JUMPDEST PUSH1 0x40 MLOAD DUP1 SWAP2 SUB SWAP1 RETURN JUMPDEST PUSH2 0x20D PUSH2 0x816 JUMP JUMPDEST STOP JUMPDEST PUSH1 0x0 DUP1 SLOAD SWAP1 PUSH2 0x100 EXP SWAP1 DIV PUSH20 0xFFFFFFFFFFFFFFFFFFFFFFFFFFFFFFFFFFFFFFFF AND PUSH20 0xFFFFFFFFFFFFFFFFFFFFFFFFFFFFFFFFFFFFFFFF AND CALLER PUSH20 0xFFFFFFFFFFFFFFFFFFFFFFFFFFFFFFFFFFFFFFFF AND EQ PUSH2 0x29D JUMPI PUSH1 0x40 MLOAD PUSH32 0x8C379A000000000000000000000000000000000000000000000000000000000 DUP2 MSTORE PUSH1 0x4 ADD PUSH2 0x294 SWAP1 PUSH2 0xDBD JUMP JUMPDEST PUSH1 0x40 MLOAD DUP1 SWAP2 SUB SWAP1 REVERT JUMPDEST PUSH1 0x0 PUSH1 0x4 DUP3 DUP2 SLOAD DUP2 LT PUSH2 0x2B3 JUMPI PUSH2 0x2B2 PUSH2 0xDDD JUMP JUMPDEST JUMPDEST SWAP1 PUSH1 0x0 MSTORE PUSH1 0x20 PUSH1 0x0 KECCAK256 SWAP1 PUSH1 0x5 MUL ADD SWAP1 POP PUSH1 0x2 PUSH1 0x3 SLOAD PUSH2 0x2D2 SWAP2 SWAP1 PUSH2 0xE6A JUMP JUMPDEST DUP2 PUSH1 0x3 ADD SLOAD GT PUSH2 0x317 JUMPI PUSH1 0x40 MLOAD PUSH32 0x8C379A000000000000000000000000000000000000000000000000000000000 DUP2 MSTORE PUSH1 0x4 ADD PUSH2 0x30E SWAP1 PUSH2 0xF0D JUMP JUMPDEST PUSH1 0x40 MLOAD DUP1 SWAP2 SUB SWAP1 REVERT JUMPDEST DUP1 PUSH1 0x2 ADD PUSH1 0x14 SWAP1 SLOAD SWAP1 PUSH2 0x100 EXP SWAP1 DIV PUSH1 0xFF AND ISZERO PUSH2 0x369 JUMPI PUSH1 0x40 MLOAD PUSH32 0x8C379A000000000000000000000000000000000000000000000000000000000 DUP2 MSTORE PUSH1 0x4 ADD PUSH2 0x360 SWAP1 PUSH2 0xF79 JUMP JUMPDEST PUSH1 0x40 MLOAD DUP1 SWAP2 SUB SWAP1 REVERT JUMPDEST DUP1 PUSH1 0x2 ADD PUSH1 0x0 SWAP1 SLOAD SWAP1 PUSH2 0x100 EXP SWAP1 DIV PUSH20 0xFFFFFFFFFFFFFFFFFFFFFFFFFFFFFFFFFFFFFFFF AND PUSH20 0xFFFFFFFFFFFFFFFFFFFFFFFFFFFFFFFFFFFFFFFF AND PUSH2 0x8FC DUP3 PUSH1 0x1 ADD SLOAD SWAP1 DUP2 ISZERO MUL SWAP1 PUSH1 0x40 MLOAD PUSH1 0x0 PUSH1 0x40 MLOAD DUP1 DUP4 SUB DUP2 DUP6 DUP9 DUP9 CALL SWAP4 POP POP POP POP ISZERO DUP1 ISZERO PUSH2 0x3D7 JUMPI RETURNDATASIZE PUSH1 0x0 DUP1 RETURNDATACOPY RETURNDATASIZE PUSH1 0x0 REVERT JUMPDEST POP PUSH1 0x1 DUP2 PUSH1 0x2 ADD PUSH1 0x14 PUSH2 0x100 EXP DUP2 SLOAD DUP2 PUSH1 0xFF MUL NOT AND SWAP1 DUP4 ISZERO ISZERO MUL OR SWAP1 SSTORE POP POP POP JUMP JUMPDEST PUSH1 0x2 PUSH1 0x20 MSTORE DUP1 PUSH1 0x0 MSTORE PUSH1 0x40 PUSH1 0x0 KECCAK256 PUSH1 0x0 SWAP2 POP SLOAD SWAP1 PUSH2 0x100 EXP SWAP1 DIV PUSH1 0xFF AND DUP2 JUMP JUMPDEST PUSH1 0x0 PUSH1 0x4 DUP3 DUP2 SLOAD DUP2 LT PUSH2 0x42F JUMPI PUSH2 0x42E PUSH2 0xDDD JUMP JUMPDEST JUMPDEST SWAP1 PUSH1 0x0 MSTORE PUSH1 0x20 PUSH1 0x0 KECCAK256 SWAP1 PUSH1 0x5 MUL ADD SWAP1 POP PUSH1 0x2 PUSH1 0x0 CALLER PUSH20 0xFFFFFFFFFFFFFFFFFFFFFFFFFFFFFFFFFFFFFFFF AND PUSH20 0xFFFFFFFFFFFFFFFFFFFFFFFFFFFFFFFFFFFFFFFF AND DUP2 MSTORE PUSH1 0x20 ADD SWAP1 DUP2 MSTORE PUSH1 0x20 ADD PUSH1 0x0 KECCAK256 PUSH1 0x0 SWAP1 SLOAD SWAP1 PUSH2 0x100 EXP SWAP1 DIV PUSH1 0xFF AND PUSH2 0x4CB JUMPI PUSH1 0x40 MLOAD PUSH32 0x8C379A000000000000000000000000000000000000000000000000000000000 DUP2 MSTORE PUSH1 0x4 ADD PUSH2 0x4C2 SWAP1 PUSH2 0xFE5 JUMP JUMPDEST PUSH1 0x40 MLOAD DUP1 SWAP2 SUB SWAP1 REVERT JUMPDEST DUP1 PUSH1 0x4 ADD PUSH1 0x0 CALLER PUSH20 0xFFFFFFFFFFFFFFFFFFFFFFFFFFFFFFFFFFFFFFFF AND PUSH20 0xFFFFFFFFFFFFFFFFFFFFFFFFFFFFFFFFFFFFFFFF AND DUP2 MSTORE PUSH1 0x20 ADD SWAP1 DUP2 MSTORE PUSH1 0x20 ADD PUSH1 0x0 KECCAK256 PUSH1 0x0 SWAP1 SLOAD SWAP1 PUSH2 0x100 EXP SWAP1 DIV PUSH1 0xFF AND ISZERO PUSH2 0x55A JUMPI PUSH1 0x40 MLOAD PUSH32 0x8C379A000000000000000000000000000000000000000000000000000000000 DUP2 MSTORE PUSH1 0x4 ADD PUSH2 0x551 SWAP1 PUSH2 0x1077 JUMP JUMPDEST PUSH1 0x40 MLOAD DUP1 SWAP2 SUB SWAP1 REVERT JUMPDEST PUSH1 0x1 DUP2 PUSH1 0x4 ADD PUSH1 0x0 CALLER PUSH20 0xFFFFFFFFFFFFFFFFFFFFFFFFFFFFFFFFFFFFFFFF AND PUSH20 0xFFFFFFFFFFFFFFFFFFFFFFFFFFFFFFFFFFFFFFFF AND DUP2 MSTORE PUSH1 0x20 ADD SWAP1 DUP2 MSTORE PUSH1 0x20 ADD PUSH1 0x0 KECCAK256 PUSH1 0x0 PUSH2 0x100 EXP DUP2 SLOAD DUP2 PUSH1 0xFF MUL NOT AND SWAP1 DUP4 ISZERO ISZERO MUL OR SWAP1 SSTORE POP DUP1 PUSH1 0x3 ADD PUSH1 0x0 DUP2 SLOAD DUP1 SWAP3 SWAP2 SWAP1 PUSH2 0x5C9 SWAP1 PUSH2 0x1097 JUMP JUMPDEST SWAP2 SWAP1 POP SSTORE POP POP POP JUMP JUMPDEST PUSH1 0x0 DUP1 SLOAD SWAP1 PUSH2 0x100 EXP SWAP1 DIV PUSH20 0xFFFFFFFFFFFFFFFFFFFFFFFFFFFFFFFFFFFFFFFF AND DUP2 JUMP JUMPDEST PUSH1 0x4 DUP2 DUP2 SLOAD DUP2 LT PUSH2 0x606 JUMPI PUSH1 0x0 DUP1 REVERT JUMPDEST SWAP1 PUSH1 0x0 MSTORE PUSH1 0x20 PUSH1 0x0 KECCAK256 SWAP1 PUSH1 0x5 MUL ADD PUSH1 0x0 SWAP2 POP SWAP1 POP DUP1 PUSH1 0x0 ADD DUP1 SLOAD PUSH2 0x629 SWAP1 PUSH2 0x110F JUMP JUMPDEST DUP1 PUSH1 0x1F ADD PUSH1 0x20 DUP1 SWAP2 DIV MUL PUSH1 0x20 ADD PUSH1 0x40 MLOAD SWAP1 DUP2 ADD PUSH1 0x40 MSTORE DUP1 SWAP3 SWAP2 SWAP1 DUP2 DUP2 MSTORE PUSH1 0x20 ADD DUP3 DUP1 SLOAD PUSH2 0x655 SWAP1 PUSH2 0x110F JUMP JUMPDEST DUP1 ISZERO PUSH2 0x6A2 JUMPI DUP1 PUSH1 0x1F LT PUSH2 0x677 JUMPI PUSH2 0x100 DUP1 DUP4 SLOAD DIV MUL DUP4 MSTORE SWAP2 PUSH1 0x20 ADD SWAP2 PUSH2 0x6A2 JUMP JUMPDEST DUP3 ADD SWAP2 SWAP1 PUSH1 0x0 MSTORE PUSH1 0x20 PUSH1 0x0 KECCAK256 SWAP1 JUMPDEST DUP2 SLOAD DUP2 MSTORE SWAP1 PUSH1 0x1 ADD SWAP1 PUSH1 0x20 ADD DUP1 DUP4 GT PUSH2 0x685 JUMPI DUP3 SWAP1 SUB PUSH1 0x1F AND DUP3 ADD SWAP2 JUMPDEST POP POP POP POP POP SWAP1 DUP1 PUSH1 0x1 ADD SLOAD SWAP1 DUP1 PUSH1 0x2 ADD PUSH1 0x0 SWAP1 SLOAD SWAP1 PUSH2 0x100 EXP SWAP1 DIV PUSH20 0xFFFFFFFFFFFFFFFFFFFFFFFFFFFFFFFFFFFFFFFF AND SWAP1 DUP1 PUSH1 0x2 ADD PUSH1 0x14 SWAP1 SLOAD SWAP1 PUSH2 0x100 EXP SWAP1 DIV PUSH1 0xFF AND SWAP1 DUP1 PUSH1 0x3 ADD SLOAD SWAP1 POP DUP6 JUMP JUMPDEST PUSH1 0x3 SLOAD DUP2 JUMP JUMPDEST PUSH1 0x0 DUP1 SLOAD SWAP1 PUSH2 0x100 EXP SWAP1 DIV PUSH20 0xFFFFFFFFFFFFFFFFFFFFFFFFFFFFFFFFFFFFFFFF AND PUSH20 0xFFFFFFFFFFFFFFFFFFFFFFFFFFFFFFFFFFFFFFFF AND CALLER PUSH20 0xFFFFFFFFFFFFFFFFFFFFFFFFFFFFFFFFFFFFFFFF AND EQ PUSH2 0x785 JUMPI PUSH1 0x40 MLOAD PUSH32 0x8C379A000000000000000000000000000000000000000000000000000000000 DUP2 MSTORE PUSH1 0x4 ADD PUSH2 0x77C SWAP1 PUSH2 0xDBD JUMP JUMPDEST PUSH1 0x40 MLOAD DUP1 SWAP2 SUB SWAP1 REVERT JUMPDEST PUSH1 0x0 PUSH1 0x4 PUSH1 0x1 DUP2 PUSH1 0x1 DUP2 SLOAD ADD DUP1 DUP3 SSTORE DUP1 SWAP2 POP POP SUB SWAP1 PUSH1 0x0 MSTORE PUSH1 0x20 PUSH1 0x0 KECCAK256 SWAP1 PUSH1 0x5 MUL ADD SWAP1 POP DUP5 DUP5 DUP3 PUSH1 0x0 ADD SWAP2 SWAP1 PUSH2 0x7BC SWAP3 SWAP2 SWAP1 PUSH2 0x95A JUMP JUMPDEST POP DUP3 DUP2 PUSH1 0x1 ADD DUP2 SWAP1 SSTORE POP DUP2 DUP2 PUSH1 0x2 ADD PUSH1 0x0 PUSH2 0x100 EXP DUP2 SLOAD DUP2 PUSH20 0xFFFFFFFFFFFFFFFFFFFFFFFFFFFFFFFFFFFFFFFF MUL NOT AND SWAP1 DUP4 PUSH20 0xFFFFFFFFFFFFFFFFFFFFFFFFFFFFFFFFFFFFFFFF AND MUL OR SWAP1 SSTORE POP POP POP POP POP POP JUMP JUMPDEST PUSH1 0x1 SLOAD DUP2 JUMP JUMPDEST PUSH1 0x1 SLOAD CALLVALUE LT ISZERO PUSH2 0x85B JUMPI PUSH1 0x40 MLOAD PUSH32 0x8C379A000000000000000000000000000000000000000000000000000000000 DUP2 MSTORE PUSH1 0x4 ADD PUSH2 0x852 SWAP1 PUSH2 0x11B3 JUMP JUMPDEST PUSH1 0x40 MLOAD DUP1 SWAP2 SUB SWAP1 REVERT JUMPDEST PUSH1 0x2 PUSH1 0x0 CALLER PUSH20 0xFFFFFFFFFFFFFFFFFFFFFFFFFFFFFFFFFFFFFFFF AND PUSH20 0xFFFFFFFFFFFFFFFFFFFFFFFFFFFFFFFFFFFFFFFF AND DUP2 MSTORE PUSH1 0x20 ADD SWAP1 DUP2 MSTORE PUSH1 0x20 ADD PUSH1 0x0 KECCAK256 PUSH1 0x0 SWAP1 SLOAD SWAP1 PUSH2 0x100 EXP SWAP1 DIV PUSH1 0xFF AND ISZERO PUSH2 0x8E8 JUMPI PUSH1 0x40 MLOAD PUSH32 0x8C379A000000000000000000000000000000000000000000000000000000000 DUP2 MSTORE PUSH1 0x4 ADD PUSH2 0x8DF SWAP1 PUSH2 0x1245 JUMP JUMPDEST PUSH1 0x40 MLOAD DUP1 SWAP2 SUB SWAP1 REVERT JUMPDEST PUSH1 0x1 PUSH1 0x2 PUSH1 0x0 CALLER PUSH20 0xFFFFFFFFFFFFFFFFFFFFFFFFFFFFFFFFFFFFFFFF AND PUSH20 0xFFFFFFFFFFFFFFFFFFFFFFFFFFFFFFFFFFFFFFFF AND DUP2 MSTORE PUSH1 0x20 ADD SWAP1 DUP2 MSTORE PUSH1 0x20 ADD PUSH1 0x0 KECCAK256 PUSH1 0x0 PUSH2 0x100 EXP DUP2 SLOAD DUP2 PUSH1 0xFF MUL NOT AND SWAP1 DUP4 ISZERO ISZERO MUL OR SWAP1 SSTORE POP PUSH1 0x3 PUSH1 0x0 DUP2 SLOAD DUP1 SWAP3 SWAP2 SWAP1 PUSH2 0x953 SWAP1 PUSH2 0x1097 JUMP JUMPDEST SWAP2 SWAP1 POP SSTORE POP JUMP JUMPDEST DUP3 DUP1 SLOAD PUSH2 0x966 SWAP1 PUSH2 0x110F JUMP JUMPDEST SWAP1 PUSH1 0x0 MSTORE PUSH1 0x20 PUSH1 0x0 KECCAK256 SWAP1 PUSH1 0x1F ADD PUSH1 0x20 SWAP1 DIV DUP2 ADD SWAP3 DUP3 PUSH2 0x988 JUMPI PUSH1 0x0 DUP6 SSTORE PUSH2 0x9CF JUMP JUMPDEST DUP3 PUSH1 0x1F LT PUSH2 0x9A1 JUMPI DUP1 CALLDATALOAD PUSH1 0xFF NOT AND DUP4 DUP1 ADD OR DUP6 SSTORE PUSH2 0x9CF JUMP JUMPDEST DUP3 DUP1 ADD PUSH1 0x1 ADD DUP6 SSTORE DUP3 ISZERO PUSH2 0x9CF JUMPI SWAP2 DUP3 ADD JUMPDEST DUP3 DUP2 GT ISZERO PUSH2 0x9CE JUMPI DUP3 CALLDATALOAD DUP3 SSTORE SWAP2 PUSH1 0x20 ADD SWAP2 SWAP1 PUSH1 0x1 ADD SWAP1 PUSH2 0x9B3 JUMP JUMPDEST JUMPDEST POP SWAP1 POP PUSH2 0x9DC SWAP2 SWAP1 PUSH2 0x9E0 JUMP JUMPDEST POP SWAP1 JUMP JUMPDEST JUMPDEST DUP1 DUP3 GT ISZERO PUSH2 0x9F9 JUMPI PUSH1 0x0 DUP2 PUSH1 0x0 SWAP1 SSTORE POP PUSH1 0x1 ADD PUSH2 0x9E1 JUMP JUMPDEST POP SWAP1 JUMP JUMPDEST PUSH1 0x0 DUP1 REVERT JUMPDEST PUSH1 0x0 DUP1 REVERT JUMPDEST PUSH1 0x0 DUP2 SWAP1 POP SWAP2 SWAP1 POP JUMP JUMPDEST PUSH2 0xA1A DUP2 PUSH2 0xA07 JUMP JUMPDEST DUP2 EQ PUSH2 0xA25 JUMPI PUSH1 0x0 DUP1 REVERT JUMPDEST POP JUMP JUMPDEST PUSH1 0x0 DUP2 CALLDATALOAD SWAP1 POP PUSH2 0xA37 DUP2 PUSH2 0xA11 JUMP JUMPDEST SWAP3 SWAP2 POP POP JUMP JUMPDEST PUSH1 0x0 PUSH1 0x20 DUP3 DUP5 SUB SLT ISZERO PUSH2 0xA53 JUMPI PUSH2 0xA52 PUSH2 0x9FD JUMP JUMPDEST JUMPDEST PUSH1 0x0 PUSH2 0xA61 DUP5 DUP3 DUP6 ADD PUSH2 0xA28 JUMP JUMPDEST SWAP2 POP POP SWAP3 SWAP2 POP POP JUMP JUMPDEST PUSH1 0x0 PUSH20 0xFFFFFFFFFFFFFFFFFFFFFFFFFFFFFFFFFFFFFFFF DUP3 AND SWAP1 POP SWAP2 SWAP1 POP JUMP JUMPDEST PUSH1 0x0 PUSH2 0xA95 DUP3 PUSH2 0xA6A JUMP JUMPDEST SWAP1 POP SWAP2 SWAP1 POP JUMP JUMPDEST PUSH2 0xAA5 DUP2 PUSH2 0xA8A JUMP JUMPDEST DUP2 EQ PUSH2 0xAB0 JUMPI PUSH1 0x0 DUP1 REVERT JUMPDEST POP JUMP JUMPDEST PUSH1 0x0 DUP2 CALLDATALOAD SWAP1 POP PUSH2 0xAC2 DUP2 PUSH2 0xA9C JUMP JUMPDEST SWAP3 SWAP2 POP POP JUMP JUMPDEST PUSH1 0x0 PUSH1 0x20 DUP3 DUP5 SUB SLT ISZERO PUSH2 0xADE JUMPI PUSH2 0xADD PUSH2 0x9FD JUMP JUMPDEST JUMPDEST PUSH1 0x0 PUSH2 0xAEC DUP5 DUP3 DUP6 ADD PUSH2 0xAB3 JUMP JUMPDEST SWAP2 POP POP SWAP3 SWAP2 POP POP JUMP JUMPDEST PUSH1 0x0 DUP2 ISZERO ISZERO SWAP1 POP SWAP2 SWAP1 POP JUMP JUMPDEST PUSH2 0xB0A DUP2 PUSH2 0xAF5 JUMP JUMPDEST DUP3 MSTORE POP POP JUMP JUMPDEST PUSH1 0x0 PUSH1 0x20 DUP3 ADD SWAP1 POP PUSH2 0xB25 PUSH1 0x0 DUP4 ADD DUP5 PUSH2 0xB01 JUMP JUMPDEST SWAP3 SWAP2 POP POP JUMP JUMPDEST PUSH2 0xB34 DUP2 PUSH2 0xA8A JUMP JUMPDEST DUP3 MSTORE POP POP JUMP JUMPDEST PUSH1 0x0 PUSH1 0x20 DUP3 ADD SWAP1 POP PUSH2 0xB4F PUSH1 0x0 DUP4 ADD DUP5 PUSH2 0xB2B JUMP JUMPDEST SWAP3 SWAP2 POP POP JUMP JUMPDEST PUSH1 0x0 DUP2 MLOAD SWAP1 POP SWAP2 SWAP1 POP JUMP JUMPDEST PUSH1 0x0 DUP3 DUP3 MSTORE PUSH1 0x20 DUP3 ADD SWAP1 POP SWAP3 SWAP2 POP POP JUMP JUMPDEST PUSH1 0x0 JUMPDEST DUP4 DUP2 LT ISZERO PUSH2 0xB8F JUMPI DUP1 DUP3 ADD MLOAD DUP2 DUP5 ADD MSTORE PUSH1 0x20 DUP2 ADD SWAP1 POP PUSH2 0xB74 JUMP JUMPDEST DUP4 DUP2 GT ISZERO PUSH2 0xB9E JUMPI PUSH1 0x0 DUP5 DUP5 ADD MSTORE JUMPDEST POP POP POP POP JUMP JUMPDEST PUSH1 0x0 PUSH1 0x1F NOT PUSH1 0x1F DUP4 ADD AND SWAP1 POP SWAP2 SWAP1 POP JUMP JUMPDEST PUSH1 0x0 PUSH2 0xBC0 DUP3 PUSH2 0xB55 JUMP JUMPDEST PUSH2 0xBCA DUP2 DUP6 PUSH2 0xB60 JUMP JUMPDEST SWAP4 POP PUSH2 0xBDA DUP2 DUP6 PUSH1 0x20 DUP7 ADD PUSH2 0xB71 JUMP JUMPDEST PUSH2 0xBE3 DUP2 PUSH2 0xBA4 JUMP JUMPDEST DUP5 ADD SWAP2 POP POP SWAP3 SWAP2 POP POP JUMP JUMPDEST PUSH2 0xBF7 DUP2 PUSH2 0xA07 JUMP JUMPDEST DUP3 MSTORE POP POP JUMP JUMPDEST PUSH1 0x0 PUSH1 0xA0 DUP3 ADD SWAP1 POP DUP2 DUP2 SUB PUSH1 0x0 DUP4 ADD MSTORE PUSH2 0xC17 DUP2 DUP9 PUSH2 0xBB5 JUMP JUMPDEST SWAP1 POP PUSH2 0xC26 PUSH1 0x20 DUP4 ADD DUP8 PUSH2 0xBEE JUMP JUMPDEST PUSH2 0xC33 PUSH1 0x40 DUP4 ADD DUP7 PUSH2 0xB2B JUMP JUMPDEST PUSH2 0xC40 PUSH1 0x60 DUP4 ADD DUP6 PUSH2 0xB01 JUMP JUMPDEST PUSH2 0xC4D PUSH1 0x80 DUP4 ADD DUP5 PUSH2 0xBEE JUMP JUMPDEST SWAP7 SWAP6 POP POP POP POP POP POP JUMP JUMPDEST PUSH1 0x0 PUSH1 0x20 DUP3 ADD SWAP1 POP PUSH2 0xC6C PUSH1 0x0 DUP4 ADD DUP5 PUSH2 0xBEE JUMP JUMPDEST SWAP3 SWAP2 POP POP JUMP JUMPDEST PUSH1 0x0 DUP1 REVERT JUMPDEST PUSH1 0x0 DUP1 REVERT JUMPDEST PUSH1 0x0 DUP1 REVERT JUMPDEST PUSH1 0x0 DUP1 DUP4 PUSH1 0x1F DUP5 ADD SLT PUSH2 0xC97 JUMPI PUSH2 0xC96 PUSH2 0xC72 JUMP JUMPDEST JUMPDEST DUP3 CALLDATALOAD SWAP1 POP PUSH8 0xFFFFFFFFFFFFFFFF DUP2 GT ISZERO PUSH2 0xCB4 JUMPI PUSH2 0xCB3 PUSH2 0xC77 JUMP JUMPDEST JUMPDEST PUSH1 0x20 DUP4 ADD SWAP2 POP DUP4 PUSH1 0x1 DUP3 MUL DUP4 ADD GT ISZERO PUSH2 0xCD0 JUMPI PUSH2 0xCCF PUSH2 0xC7C JUMP JUMPDEST JUMPDEST SWAP3 POP SWAP3 SWAP1 POP JUMP JUMPDEST PUSH1 0x0 DUP1 PUSH1 0x0 DUP1 PUSH1 0x60 DUP6 DUP8 SUB SLT ISZERO PUSH2 0xCF1 JUMPI PUSH2 0xCF0 PUSH2 0x9FD JUMP JUMPDEST JUMPDEST PUSH1 0x0 DUP6 ADD CALLDATALOAD PUSH8 0xFFFFFFFFFFFFFFFF DUP2 GT ISZERO PUSH2 0xD0F JUMPI PUSH2 0xD0E PUSH2 0xA02 JUMP JUMPDEST JUMPDEST PUSH2 0xD1B DUP8 DUP3 DUP9 ADD PUSH2 0xC81 JUMP JUMPDEST SWAP5 POP SWAP5 POP POP PUSH1 0x20 PUSH2 0xD2E DUP8 DUP3 DUP9 ADD PUSH2 0xA28 JUMP JUMPDEST SWAP3 POP POP PUSH1 0x40 PUSH2 0xD3F DUP8 DUP3 DUP9 ADD PUSH2 0xAB3 JUMP JUMPDEST SWAP2 POP POP SWAP3 SWAP6 SWAP2 SWAP5 POP SWAP3 POP JUMP JUMPDEST PUSH32 0x416374696F6E207265737472696374656420746F20746865206D616E61676572 PUSH1 0x0 DUP3 ADD MSTORE PUSH32 0x2100000000000000000000000000000000000000000000000000000000000000 PUSH1 0x20 DUP3 ADD MSTORE POP JUMP JUMPDEST PUSH1 0x0 PUSH2 0xDA7 PUSH1 0x21 DUP4 PUSH2 0xB60 JUMP JUMPDEST SWAP2 POP PUSH2 0xDB2 DUP3 PUSH2 0xD4B JUMP JUMPDEST PUSH1 0x40 DUP3 ADD SWAP1 POP SWAP2 SWAP1 POP JUMP JUMPDEST PUSH1 0x0 PUSH1 0x20 DUP3 ADD SWAP1 POP DUP2 DUP2 SUB PUSH1 0x0 DUP4 ADD MSTORE PUSH2 0xDD6 DUP2 PUSH2 0xD9A JUMP JUMPDEST SWAP1 POP SWAP2 SWAP1 POP JUMP JUMPDEST PUSH32 0x4E487B7100000000000000000000000000000000000000000000000000000000 PUSH1 0x0 MSTORE PUSH1 0x32 PUSH1 0x4 MSTORE PUSH1 0x24 PUSH1 0x0 REVERT JUMPDEST PUSH32 0x4E487B7100000000000000000000000000000000000000000000000000000000 PUSH1 0x0 MSTORE PUSH1 0x12 PUSH1 0x4 MSTORE PUSH1 0x24 PUSH1 0x0 REVERT JUMPDEST PUSH32 0x4E487B7100000000000000000000000000000000000000000000000000000000 PUSH1 0x0 MSTORE PUSH1 0x11 PUSH1 0x4 MSTORE PUSH1 0x24 PUSH1 0x0 REVERT JUMPDEST PUSH1 0x0 PUSH2 0xE75 DUP3 PUSH2 0xA07 JUMP JUMPDEST SWAP2 POP PUSH2 0xE80 DUP4 PUSH2 0xA07 JUMP JUMPDEST SWAP3 POP DUP3 PUSH2 0xE90 JUMPI PUSH2 0xE8F PUSH2 0xE0C JUMP JUMPDEST JUMPDEST DUP3 DUP3 DIV SWAP1 POP SWAP3 SWAP2 POP POP JUMP JUMPDEST PUSH32 0x52657175657374206469646E27742072656365697665206D696E696D756D2061 PUSH1 0x0 DUP3 ADD MSTORE PUSH32 0x7070726F76616C73207965742100000000000000000000000000000000000000 PUSH1 0x20 DUP3 ADD MSTORE POP JUMP JUMPDEST PUSH1 0x0 PUSH2 0xEF7 PUSH1 0x2D DUP4 PUSH2 0xB60 JUMP JUMPDEST SWAP2 POP PUSH2 0xF02 DUP3 PUSH2 0xE9B JUMP JUMPDEST PUSH1 0x40 DUP3 ADD SWAP1 POP SWAP2 SWAP1 POP JUMP JUMPDEST PUSH1 0x0 PUSH1 0x20 DUP3 ADD SWAP1 POP DUP2 DUP2 SUB PUSH1 0x0 DUP4 ADD MSTORE PUSH2 0xF26 DUP2 PUSH2 0xEEA JUMP JUMPDEST SWAP1 POP SWAP2 SWAP1 POP JUMP JUMPDEST PUSH32 0x5265717565737420697320616C726561647920636F6D706C6574652100000000 PUSH1 0x0 DUP3 ADD MSTORE POP JUMP JUMPDEST PUSH1 0x0 PUSH2 0xF63 PUSH1 0x1C DUP4 PUSH2 0xB60 JUMP JUMPDEST SWAP2 POP PUSH2 0xF6E DUP3 PUSH2 0xF2D JUMP JUMPDEST PUSH1 0x20 DUP3 ADD SWAP1 POP SWAP2 SWAP1 POP JUMP JUMPDEST PUSH1 0x0 PUSH1 0x20 DUP3 ADD SWAP1 POP DUP2 DUP2 SUB PUSH1 0x0 DUP4 ADD MSTORE PUSH2 0xF92 DUP2 PUSH2 0xF56 JUMP JUMPDEST SWAP1 POP SWAP2 SWAP1 POP JUMP JUMPDEST PUSH32 0x416374696F6E207265737472696374656420746F20617070726F766572732100 PUSH1 0x0 DUP3 ADD MSTORE POP JUMP JUMPDEST PUSH1 0x0 PUSH2 0xFCF PUSH1 0x1F DUP4 PUSH2 0xB60 JUMP JUMPDEST SWAP2 POP PUSH2 0xFDA DUP3 PUSH2 0xF99 JUMP JUMPDEST PUSH1 0x20 DUP3 ADD SWAP1 POP SWAP2 SWAP1 POP JUMP JUMPDEST PUSH1 0x0 PUSH1 0x20 DUP3 ADD SWAP1 POP DUP2 DUP2 SUB PUSH1 0x0 DUP4 ADD MSTORE PUSH2 0xFFE DUP2 PUSH2 0xFC2 JUMP JUMPDEST SWAP1 POP SWAP2 SWAP1 POP JUMP JUMPDEST PUSH32 0x596F7520616C726561647920617070726F766564207468697320726571756573 PUSH1 0x0 DUP3 ADD MSTORE PUSH32 0x742E000000000000000000000000000000000000000000000000000000000000 PUSH1 0x20 DUP3 ADD MSTORE POP JUMP JUMPDEST PUSH1 0x0 PUSH2 0x1061 PUSH1 0x22 DUP4 PUSH2 0xB60 JUMP JUMPDEST SWAP2 POP PUSH2 0x106C DUP3 PUSH2 0x1005 JUMP JUMPDEST PUSH1 0x40 DUP3 ADD SWAP1 POP SWAP2 SWAP1 POP JUMP JUMPDEST PUSH1 0x0 PUSH1 0x20 DUP3 ADD SWAP1 POP DUP2 DUP2 SUB PUSH1 0x0 DUP4 ADD MSTORE PUSH2 0x1090 DUP2 PUSH2 0x1054 JUMP JUMPDEST SWAP1 POP SWAP2 SWAP1 POP JUMP JUMPDEST PUSH1 0x0 PUSH2 0x10A2 DUP3 PUSH2 0xA07 JUMP JUMPDEST SWAP2 POP PUSH32 0xFFFFFFFFFFFFFFFFFFFFFFFFFFFFFFFFFFFFFFFFFFFFFFFFFFFFFFFFFFFFFFFF DUP3 EQ ISZERO PUSH2 0x10D5 JUMPI PUSH2 0x10D4 PUSH2 0xE3B JUMP JUMPDEST JUMPDEST PUSH1 0x1 DUP3 ADD SWAP1 POP SWAP2 SWAP1 POP JUMP JUMPDEST PUSH32 0x4E487B7100000000000000000000000000000000000000000000000000000000 PUSH1 0x0 MSTORE PUSH1 0x22 PUSH1 0x4 MSTORE PUSH1 0x24 PUSH1 0x0 REVERT JUMPDEST PUSH1 0x0 PUSH1 0x2 DUP3 DIV SWAP1 POP PUSH1 0x1 DUP3 AND DUP1 PUSH2 0x1127 JUMPI PUSH1 0x7F DUP3 AND SWAP2 POP JUMPDEST PUSH1 0x20 DUP3 LT DUP2 EQ ISZERO PUSH2 0x113B JUMPI PUSH2 0x113A PUSH2 0x10E0 JUMP JUMPDEST JUMPDEST POP SWAP2 SWAP1 POP JUMP JUMPDEST PUSH32 0x56616C7565206D7573742062652067726561746572207468616E206F72206571 PUSH1 0x0 DUP3 ADD MSTORE PUSH32 0x75616C20746F206D696E696D756D20636F6E747269627574696F6E2E00000000 PUSH1 0x20 DUP3 ADD MSTORE POP JUMP JUMPDEST PUSH1 0x0 PUSH2 0x119D PUSH1 0x3C DUP4 PUSH2 0xB60 JUMP JUMPDEST SWAP2 POP PUSH2 0x11A8 DUP3 PUSH2 0x1141 JUMP JUMPDEST PUSH1 0x40 DUP3 ADD SWAP1 POP SWAP2 SWAP1 POP JUMP JUMPDEST PUSH1 0x0 PUSH1 0x20 DUP3 ADD SWAP1 POP DUP2 DUP2 SUB PUSH1 0x0 DUP4 ADD MSTORE PUSH2 0x11CC DUP2 PUSH2 0x1190 JUMP JUMPDEST SWAP1 POP SWAP2 SWAP1 POP JUMP JUMPDEST PUSH32 0x596F7520616C726561647920636F6E747269627574656420746F207468697320 PUSH1 0x0 DUP3 ADD MSTORE PUSH32 0x63616D706169676E2E0000000000000000000000000000000000000000000000 PUSH1 0x20 DUP3 ADD MSTORE POP JUMP JUMPDEST PUSH1 0x0 PUSH2 0x122F PUSH1 0x29 DUP4 PUSH2 0xB60 JUMP JUMPDEST SWAP2 POP PUSH2 0x123A DUP3 PUSH2 0x11D3 JUMP JUMPDEST PUSH1 0x40 DUP3 ADD SWAP1 POP SWAP2 SWAP1 POP JUMP JUMPDEST PUSH1 0x0 PUSH1 0x20 DUP3 ADD SWAP1 POP DUP2 DUP2 SUB PUSH1 0x0 DUP4 ADD MSTORE PUSH2 0x125E DUP2 PUSH2 0x1222 JUMP JUMPDEST SWAP1 POP SWAP2 SWAP1 POP JUMP INVALID LOG2 PUSH5 0x6970667358 0x22 SLT KECCAK256 JUMPI 0x28 SMOD 0xA6 0xF7 PUSH6 0xED32FC8232C5 0x4A 0xB7 0xAF STOP 0xC6 SELFBALANCE SSTORE 0xEC SDIV 0xD3 0x24 0xA6 0xDA DUP3 SWAP9 0xB0 NUMBER CALLDATASIZE 0xC7 0xCE PUSH5 0x736F6C6343 STOP ADDMOD MULMOD STOP CALLER "},"gasEstimates":{"creation":{"codeDepositCost":"952600","executionCost":"infinite","totalCost":"infinite"},"external":{"approveRequesg(uint256)":"infinite","approvers(address)":"2868","approversCount()":"2451","contribute()":"53294","createRequest(string,uint256,address)":"infinite","finalizeRequest(uint256)":"infinite","manager()":"2578","minimumContribution()":"2495","requests(uint256)":"infinite"}},"methodIdentifiers":{"approveRequesg(uint256)":"138b6ec8","approvers(address)":"0a144391","approversCount()":"82fde093","contribute()":"d7bb99ba","createRequest(string,uint256,address)":"8a9cfd55","finalizeRequest(uint256)":"03441006","manager()":"481c6a75","minimumContribution()":"937e09b1","requests(uint256)":"81d12c58"}},"storageLayout":{"storage":[{"astId":57,"contract":"Campaign.sol:Campaign","label":"manager","offset":0,"slot":"0","type":"t_address"},{"astId":59,"contract":"Campaign.sol:Campaign","label":"minimumContribution","offset":0,"slot":"1","type":"t_uint256"},{"astId":63,"contract":"Campaign.sol:Campaign","label":"approvers","offset":0,"slot":"2","type":"t_mapping(t_address,t_bool)"},{"astId":65,"contract":"Campaign.sol:Campaign","label":"approversCount","offset":0,"slot":"3","type":"t_uint256"},{"astId":69,"contract":"Campaign.sol:Campaign","label":"requests","offset":0,"slot":"4","type":"t_array(t_struct(Request)16_storage)dyn_storage"}],"types":{"t_address":{"encoding":"inplace","label":"address","numberOfBytes":"20"},"t_array(t_struct(Request)16_storage)dyn_storage":{"base":"t_struct(Request)16_storage","encoding":"dynamic_array","label":"struct Request[]","numberOfBytes":"32"},"t_bool":{"encoding":"inplace","label":"bool","numberOfBytes":"1"},"t_mapping(t_address,t_bool)":{"encoding":"mapping","key":"t_address","label":"mapping(address => bool)","numberOfBytes":"32","value":"t_bool"},"t_string_storage":{"encoding":"bytes","label":"string","numberOfBytes":"32"},"t_struct(Request)16_storage":{"encoding":"inplace","label":"struct Request","members":[{"astId":3,"contract":"Campaign.sol:Campaign","label":"description","offset":0,"slot":"0","type":"t_string_storage"},{"astId":5,"contract":"Campaign.sol:Campaign","label":"value","offset":0,"slot":"1","type":"t_uint256"},{"astId":7,"contract":"Campaign.sol:Campaign","label":"recipient","offset":0,"slot":"2","type":"t_address"},{"astId":9,"contract":"Campaign.sol:Campaign","label":"complete","offset":20,"slot":"2","type":"t_bool"},{"astId":11,"contract":"Campaign.sol:Campaign","label":"approvalCount","offset":0,"slot":"3","type":"t_uint256"},{"astId":15,"contract":"Campaign.sol:Campaign","label":"approvals","offset":0,"slot":"4","type":"t_mapping(t_address,t_bool)"}],"numberOfBytes":"160"},"t_uint256":{"encoding":"inplace","label":"uint256","numberOfBytes":"32"}}},"userdoc":{"kind":"user","methods":{},"version":1}}